{
  "address": "0x9fE46736679d2D9a65F0992F2272dE9f3c7fa6e0",
  "abi": [
    {
      "inputs": [],
      "stateMutability": "nonpayable",
      "type": "constructor"
    },
    {
      "inputs": [],
      "name": "ApprovalToCurrentOwner",
      "type": "error"
    },
    {
      "inputs": [],
      "name": "ApproveToCaller",
      "type": "error"
    },
    {
      "inputs": [],
      "name": "CallerIsOwner",
      "type": "error"
    },
    {
      "inputs": [],
      "name": "CallerNotBidder",
      "type": "error"
    },
    {
      "inputs": [],
      "name": "CallerNotOwner",
      "type": "error"
    },
    {
      "inputs": [],
      "name": "CallerNotOwnerNorApproved",
      "type": "error"
    },
    {
      "inputs": [],
      "name": "CountMustBePositive",
      "type": "error"
    },
    {
      "inputs": [],
      "name": "InsufficientPayment",
      "type": "error"
    },
    {
      "inputs": [],
      "name": "MaxSupplyReached",
      "type": "error"
    },
    {
      "inputs": [],
      "name": "NoActiveOffer",
      "type": "error"
    },
    {
      "inputs": [],
      "name": "NoTokensListed",
      "type": "error"
    },
    {
      "inputs": [],
      "name": "NotRoyaltyOwner",
      "type": "error"
    },
    {
      "inputs": [],
      "name": "OfferMustBeGreater",
      "type": "error"
    },
    {
      "inputs": [],
      "name": "PriceBelowMinimum",
      "type": "error"
    },
    {
      "inputs": [],
      "name": "PriceChanged",
      "type": "error"
    },
    {
      "inputs": [],
      "name": "PriceMustBeDifferent",
      "type": "error"
    },
    {
      "inputs": [],
      "name": "SameRoyaltyOwner",
      "type": "error"
    },
    {
      "inputs": [],
      "name": "StartIndexOutOfBounds",
      "type": "error"
    },
    {
      "inputs": [],
      "name": "TokenAlreadyForSale",
      "type": "error"
    },
    {
      "inputs": [],
      "name": "TokenAlreadyMinted",
      "type": "error"
    },
    {
      "inputs": [],
      "name": "TokenNonexistent",
      "type": "error"
    },
    {
      "inputs": [],
      "name": "TokenNotForSale",
      "type": "error"
    },
    {
      "inputs": [],
      "name": "TransferFailed",
      "type": "error"
    },
    {
      "inputs": [],
      "name": "TransferOfTokenNotOwn",
      "type": "error"
    },
    {
      "inputs": [],
      "name": "TransferToNonReceiver",
      "type": "error"
    },
    {
      "inputs": [],
      "name": "TransferToZeroAddress",
      "type": "error"
    },
    {
      "inputs": [],
      "name": "ZeroAddress",
      "type": "error"
    },
    {
      "anonymous": false,
      "inputs": [
        {
          "indexed": true,
          "internalType": "address",
          "name": "owner",
          "type": "address"
        },
        {
          "indexed": true,
          "internalType": "address",
          "name": "approved",
          "type": "address"
        },
        {
          "indexed": true,
          "internalType": "uint256",
          "name": "tokenId",
          "type": "uint256"
        }
      ],
      "name": "Approval",
      "type": "event"
    },
    {
      "anonymous": false,
      "inputs": [
        {
          "indexed": true,
          "internalType": "address",
          "name": "owner",
          "type": "address"
        },
        {
          "indexed": true,
          "internalType": "address",
          "name": "operator",
          "type": "address"
        },
        {
          "indexed": false,
          "internalType": "bool",
          "name": "approved",
          "type": "bool"
        }
      ],
      "name": "ApprovalForAll",
      "type": "event"
    },
    {
      "anonymous": false,
      "inputs": [
        {
          "indexed": true,
          "internalType": "uint256",
          "name": "tokenId",
          "type": "uint256"
        },
        {
          "indexed": true,
          "internalType": "address",
          "name": "bidder",
          "type": "address"
        },
        {
          "indexed": false,
          "internalType": "uint256",
          "name": "amount",
          "type": "uint256"
        }
      ],
      "name": "MakeOffer",
      "type": "event"
    },
    {
      "anonymous": false,
      "inputs": [
        {
          "indexed": true,
          "internalType": "address",
          "name": "previousOwner",
          "type": "address"
        },
        {
          "indexed": true,
          "internalType": "address",
          "name": "newOwner",
          "type": "address"
        }
      ],
      "name": "OwnershipTransferred",
      "type": "event"
    },
    {
      "anonymous": false,
      "inputs": [
        {
          "indexed": true,
          "internalType": "uint256",
          "name": "tokenId",
          "type": "uint256"
        },
        {
          "indexed": false,
          "internalType": "uint256",
          "name": "price",
          "type": "uint256"
        }
      ],
      "name": "TokenListedForSale",
      "type": "event"
    },
    {
      "anonymous": false,
      "inputs": [
        {
          "indexed": true,
          "internalType": "uint256",
          "name": "tokenId",
          "type": "uint256"
        },
        {
          "indexed": false,
          "internalType": "uint256",
          "name": "newPrice",
          "type": "uint256"
        }
      ],
      "name": "TokenPriceUpdated",
      "type": "event"
    },
    {
      "anonymous": false,
      "inputs": [
        {
          "indexed": true,
          "internalType": "uint256",
          "name": "tokenId",
          "type": "uint256"
        }
      ],
      "name": "TokenRemovedFromSale",
      "type": "event"
    },
    {
      "anonymous": false,
      "inputs": [
        {
          "indexed": false,
          "internalType": "uint256",
          "name": "salesId",
          "type": "uint256"
        },
        {
          "indexed": true,
          "internalType": "uint256",
          "name": "tokenId",
          "type": "uint256"
        },
        {
          "indexed": true,
          "internalType": "address",
          "name": "seller",
          "type": "address"
        },
        {
          "indexed": true,
          "internalType": "address",
          "name": "buyer",
          "type": "address"
        },
        {
          "indexed": false,
          "internalType": "uint256",
          "name": "price",
          "type": "uint256"
        },
        {
          "indexed": false,
          "internalType": "uint256",
          "name": "timestamp",
          "type": "uint256"
        }
      ],
      "name": "TokenSold",
      "type": "event"
    },
    {
      "anonymous": false,
      "inputs": [
        {
          "indexed": true,
          "internalType": "address",
          "name": "from",
          "type": "address"
        },
        {
          "indexed": true,
          "internalType": "address",
          "name": "to",
          "type": "address"
        },
        {
          "indexed": true,
          "internalType": "uint256",
          "name": "tokenId",
          "type": "uint256"
        }
      ],
      "name": "Transfer",
      "type": "event"
    },
    {
      "anonymous": false,
      "inputs": [
        {
          "indexed": true,
          "internalType": "uint256",
          "name": "tokenId",
          "type": "uint256"
        },
        {
          "indexed": true,
          "internalType": "address",
          "name": "bidder",
          "type": "address"
        },
        {
          "indexed": false,
          "internalType": "uint256",
          "name": "amount",
          "type": "uint256"
        }
      ],
      "name": "WithdrawOffer",
      "type": "event"
    },
    {
      "inputs": [],
      "name": "MAX_TOKEN_SUPPLY",
      "outputs": [
        {
          "internalType": "uint256",
          "name": "",
          "type": "uint256"
        }
      ],
      "stateMutability": "view",
      "type": "function"
    },
    {
      "inputs": [],
      "name": "MIN_PRICE",
      "outputs": [
        {
          "internalType": "uint256",
          "name": "",
          "type": "uint256"
        }
      ],
      "stateMutability": "view",
      "type": "function"
    },
    {
      "inputs": [],
      "name": "ROYALTY_FRACTION",
      "outputs": [
        {
          "internalType": "uint256",
          "name": "",
          "type": "uint256"
        }
      ],
      "stateMutability": "view",
      "type": "function"
    },
    {
      "inputs": [],
      "name": "ROYALTY_OWNER",
      "outputs": [
        {
          "internalType": "address",
          "name": "",
          "type": "address"
        }
      ],
      "stateMutability": "view",
      "type": "function"
    },
    {
      "inputs": [
        {
          "internalType": "uint256",
          "name": "tokenId",
          "type": "uint256"
        },
        {
          "internalType": "address",
          "name": "bidder",
          "type": "address"
        }
      ],
      "name": "acceptOffer",
      "outputs": [],
      "stateMutability": "nonpayable",
      "type": "function"
    },
    {
      "inputs": [
        {
          "internalType": "address",
          "name": "to",
          "type": "address"
        },
        {
          "internalType": "uint256",
          "name": "tokenId",
          "type": "uint256"
        }
      ],
      "name": "approve",
      "outputs": [],
      "stateMutability": "nonpayable",
      "type": "function"
    },
    {
      "inputs": [
        {
          "internalType": "address",
          "name": "owner",
          "type": "address"
        }
      ],
      "name": "balanceOf",
      "outputs": [
        {
          "internalType": "uint256",
          "name": "",
          "type": "uint256"
        }
      ],
      "stateMutability": "view",
      "type": "function"
    },
    {
      "inputs": [
        {
          "internalType": "uint256",
          "name": "tokenId",
          "type": "uint256"
        },
        {
          "internalType": "uint256",
          "name": "expectedPrice",
          "type": "uint256"
        }
      ],
      "name": "buyToken",
      "outputs": [],
      "stateMutability": "payable",
      "type": "function"
    },
    {
      "inputs": [],
      "name": "description",
      "outputs": [
        {
          "internalType": "string",
          "name": "",
          "type": "string"
        }
      ],
      "stateMutability": "view",
      "type": "function"
    },
    {
      "inputs": [],
      "name": "ethereumLicense",
      "outputs": [
        {
          "internalType": "string",
          "name": "",
          "type": "string"
        }
      ],
      "stateMutability": "view",
      "type": "function"
    },
    {
      "inputs": [
        {
          "internalType": "uint256",
          "name": "tokenId",
          "type": "uint256"
        }
      ],
      "name": "getApproved",
      "outputs": [
        {
          "internalType": "address",
          "name": "",
          "type": "address"
        }
      ],
      "stateMutability": "view",
      "type": "function"
    },
    {
      "inputs": [
        {
          "internalType": "uint256",
          "name": "tokenId",
          "type": "uint256"
        },
        {
          "internalType": "address",
          "name": "bidder",
          "type": "address"
        }
      ],
      "name": "getCurrentOfferOfAddressForToken",
      "outputs": [
        {
          "components": [
            {
              "internalType": "uint256",
              "name": "tokenId",
              "type": "uint256"
            },
            {
              "internalType": "address",
              "name": "bidder",
              "type": "address"
            },
            {
              "internalType": "uint256",
              "name": "price",
              "type": "uint256"
            }
          ],
          "internalType": "struct OrderStatisticsTree.Offer",
          "name": "",
          "type": "tuple"
        }
      ],
      "stateMutability": "view",
      "type": "function"
    },
    {
      "inputs": [],
      "name": "getFloorPrice",
      "outputs": [
        {
          "internalType": "uint256",
          "name": "",
          "type": "uint256"
        }
      ],
      "stateMutability": "view",
      "type": "function"
    },
    {
      "inputs": [
        {
          "internalType": "uint256",
          "name": "start",
          "type": "uint256"
        },
        {
          "internalType": "uint256",
          "name": "count",
          "type": "uint256"
        },
        {
          "internalType": "bool",
          "name": "ascending",
          "type": "bool"
        }
      ],
      "name": "getForSaleTokens",
      "outputs": [
        {
          "internalType": "uint256[]",
          "name": "",
          "type": "uint256[]"
        }
      ],
      "stateMutability": "view",
      "type": "function"
    },
    {
      "inputs": [],
      "name": "getForSaleTokensCount",
      "outputs": [
        {
          "internalType": "uint256",
          "name": "",
          "type": "uint256"
        }
      ],
      "stateMutability": "view",
      "type": "function"
    },
    {
      "inputs": [
        {
          "internalType": "uint256",
          "name": "start",
          "type": "uint256"
        },
        {
          "internalType": "uint256",
          "name": "count",
          "type": "uint256"
        },
        {
          "internalType": "bool",
          "name": "ascending",
          "type": "bool"
        }
      ],
      "name": "getGlobalOffers",
      "outputs": [
        {
          "components": [
            {
              "internalType": "uint256",
              "name": "tokenId",
              "type": "uint256"
            },
            {
              "internalType": "address",
              "name": "bidder",
              "type": "address"
            },
            {
              "internalType": "uint256",
              "name": "price",
              "type": "uint256"
            }
          ],
          "internalType": "struct OrderStatisticsTree.Offer[]",
          "name": "",
          "type": "tuple[]"
        }
      ],
      "stateMutability": "view",
      "type": "function"
    },
    {
      "inputs": [],
      "name": "getGlobalOffersCount",
      "outputs": [
        {
          "internalType": "uint256",
          "name": "",
          "type": "uint256"
        }
      ],
      "stateMutability": "view",
      "type": "function"
    },
    {
      "inputs": [
        {
          "internalType": "uint256",
          "name": "start",
          "type": "uint256"
        },
        {
          "internalType": "uint256",
          "name": "count",
          "type": "uint256"
        },
        {
          "internalType": "bool",
          "name": "ascending",
          "type": "bool"
        }
      ],
      "name": "getGlobalSales",
      "outputs": [
        {
          "components": [
            {
              "internalType": "uint256",
              "name": "salesId",
              "type": "uint256"
            },
            {
              "internalType": "uint256",
              "name": "tokenId",
              "type": "uint256"
            },
            {
              "internalType": "address",
              "name": "seller",
              "type": "address"
            },
            {
              "internalType": "address",
              "name": "buyer",
              "type": "address"
            },
            {
              "internalType": "uint256",
              "name": "price",
              "type": "uint256"
            },
            {
              "internalType": "uint256",
              "name": "timestamp",
              "type": "uint256"
            }
          ],
          "internalType": "struct OrderStatisticsTree.Sale[]",
          "name": "",
          "type": "tuple[]"
        }
      ],
      "stateMutability": "view",
      "type": "function"
    },
    {
      "inputs": [],
      "name": "getGlobalSalesCount",
      "outputs": [
        {
          "internalType": "uint256",
          "name": "",
          "type": "uint256"
        }
      ],
      "stateMutability": "view",
      "type": "function"
    },
    {
      "inputs": [
        {
          "internalType": "uint256",
          "name": "start",
          "type": "uint256"
        },
        {
          "internalType": "uint256",
          "name": "count",
          "type": "uint256"
        },
        {
          "internalType": "bool",
          "name": "ascending",
          "type": "bool"
        }
      ],
      "name": "getNotForSaleTokens",
      "outputs": [
        {
          "internalType": "uint256[]",
          "name": "",
          "type": "uint256[]"
        }
      ],
      "stateMutability": "view",
      "type": "function"
    },
    {
      "inputs": [],
      "name": "getNotForSaleTokensCount",
      "outputs": [
        {
          "internalType": "uint256",
          "name": "",
          "type": "uint256"
        }
      ],
      "stateMutability": "view",
      "type": "function"
    },
    {
      "inputs": [
        {
          "internalType": "address",
          "name": "bidder",
          "type": "address"
        },
        {
          "internalType": "uint256",
          "name": "start",
          "type": "uint256"
        },
        {
          "internalType": "uint256",
          "name": "count",
          "type": "uint256"
        },
        {
          "internalType": "bool",
          "name": "ascending",
          "type": "bool"
        }
      ],
      "name": "getOffersForBidderAddress",
      "outputs": [
        {
          "components": [
            {
              "internalType": "uint256",
              "name": "tokenId",
              "type": "uint256"
            },
            {
              "internalType": "address",
              "name": "bidder",
              "type": "address"
            },
            {
              "internalType": "uint256",
              "name": "price",
              "type": "uint256"
            }
          ],
          "internalType": "struct OrderStatisticsTree.Offer[]",
          "name": "",
          "type": "tuple[]"
        }
      ],
      "stateMutability": "view",
      "type": "function"
    },
    {
      "inputs": [
        {
          "internalType": "address",
          "name": "bidder",
          "type": "address"
        }
      ],
      "name": "getOffersForBidderAddressCount",
      "outputs": [
        {
          "internalType": "uint256",
          "name": "",
          "type": "uint256"
        }
      ],
      "stateMutability": "view",
      "type": "function"
    },
    {
      "inputs": [
        {
          "internalType": "uint256",
          "name": "tokenId",
          "type": "uint256"
        },
        {
          "internalType": "uint256",
          "name": "start",
          "type": "uint256"
        },
        {
          "internalType": "uint256",
          "name": "count",
          "type": "uint256"
        },
        {
          "internalType": "bool",
          "name": "ascending",
          "type": "bool"
        }
      ],
      "name": "getOffersForToken",
      "outputs": [
        {
          "components": [
            {
              "internalType": "uint256",
              "name": "tokenId",
              "type": "uint256"
            },
            {
              "internalType": "address",
              "name": "bidder",
              "type": "address"
            },
            {
              "internalType": "uint256",
              "name": "price",
              "type": "uint256"
            }
          ],
          "internalType": "struct OrderStatisticsTree.Offer[]",
          "name": "",
          "type": "tuple[]"
        }
      ],
      "stateMutability": "view",
      "type": "function"
    },
    {
      "inputs": [
        {
          "internalType": "uint256",
          "name": "tokenId",
          "type": "uint256"
        }
      ],
      "name": "getOffersForTokenCount",
      "outputs": [
        {
          "internalType": "uint256",
          "name": "",
          "type": "uint256"
        }
      ],
      "stateMutability": "view",
      "type": "function"
    },
    {
      "inputs": [
        {
          "internalType": "address",
          "name": "owner",
          "type": "address"
        },
        {
          "internalType": "uint256",
          "name": "start",
          "type": "uint256"
        },
        {
          "internalType": "uint256",
          "name": "count",
          "type": "uint256"
        },
        {
          "internalType": "bool",
          "name": "ascending",
          "type": "bool"
        }
      ],
      "name": "getOwnedTokens",
      "outputs": [
        {
          "internalType": "uint256[]",
          "name": "",
          "type": "uint256[]"
        }
      ],
      "stateMutability": "view",
      "type": "function"
    },
    {
      "inputs": [
        {
          "internalType": "address",
          "name": "owner",
          "type": "address"
        }
      ],
      "name": "getOwnedTokensCount",
      "outputs": [
        {
          "internalType": "uint256",
          "name": "",
          "type": "uint256"
        }
      ],
      "stateMutability": "view",
      "type": "function"
    },
    {
      "inputs": [],
      "name": "getOwnerCount",
      "outputs": [
        {
          "internalType": "uint256",
          "name": "",
          "type": "uint256"
        }
      ],
      "stateMutability": "view",
      "type": "function"
    },
    {
      "inputs": [],
      "name": "getTokenCount",
      "outputs": [
        {
          "internalType": "uint256",
          "name": "",
          "type": "uint256"
        }
      ],
      "stateMutability": "view",
      "type": "function"
    },
    {
      "inputs": [
        {
          "internalType": "uint256",
          "name": "tokenId",
          "type": "uint256"
        }
      ],
      "name": "getTokenPrice",
      "outputs": [
        {
          "internalType": "uint256",
          "name": "",
          "type": "uint256"
        }
      ],
      "stateMutability": "view",
      "type": "function"
    },
    {
      "inputs": [
        {
          "internalType": "uint256[]",
          "name": "tokenIds",
          "type": "uint256[]"
        }
      ],
      "name": "getTokenPrices",
      "outputs": [
        {
          "internalType": "uint256[]",
          "name": "",
          "type": "uint256[]"
        }
      ],
      "stateMutability": "view",
      "type": "function"
    },
    {
      "inputs": [
        {
          "internalType": "uint256",
          "name": "tokenId",
          "type": "uint256"
        },
        {
          "internalType": "uint256",
          "name": "start",
          "type": "uint256"
        },
        {
          "internalType": "uint256",
          "name": "count",
          "type": "uint256"
        },
        {
          "internalType": "bool",
          "name": "ascending",
          "type": "bool"
        }
      ],
      "name": "getTokenSalesHistory",
      "outputs": [
        {
          "components": [
            {
              "internalType": "uint256",
              "name": "salesId",
              "type": "uint256"
            },
            {
              "internalType": "uint256",
              "name": "tokenId",
              "type": "uint256"
            },
            {
              "internalType": "address",
              "name": "seller",
              "type": "address"
            },
            {
              "internalType": "address",
              "name": "buyer",
              "type": "address"
            },
            {
              "internalType": "uint256",
              "name": "price",
              "type": "uint256"
            },
            {
              "internalType": "uint256",
              "name": "timestamp",
              "type": "uint256"
            }
          ],
          "internalType": "struct OrderStatisticsTree.Sale[]",
          "name": "",
          "type": "tuple[]"
        }
      ],
      "stateMutability": "view",
      "type": "function"
    },
    {
      "inputs": [
        {
          "internalType": "uint256",
          "name": "tokenId",
          "type": "uint256"
        }
      ],
      "name": "getTokenSalesHistoryCount",
      "outputs": [
        {
          "internalType": "uint256",
          "name": "",
          "type": "uint256"
        }
      ],
      "stateMutability": "view",
      "type": "function"
    },
    {
      "inputs": [
        {
          "internalType": "uint256",
          "name": "start",
          "type": "uint256"
        },
        {
          "internalType": "uint256",
          "name": "count",
          "type": "uint256"
        }
      ],
      "name": "getTokensMetadata",
      "outputs": [
        {
          "internalType": "string[]",
          "name": "",
          "type": "string[]"
        }
      ],
      "stateMutability": "view",
      "type": "function"
    },
    {
      "inputs": [],
      "name": "getTotalSalesCount",
      "outputs": [
        {
          "internalType": "uint256",
          "name": "",
          "type": "uint256"
        }
      ],
      "stateMutability": "view",
      "type": "function"
    },
    {
      "inputs": [
        {
          "internalType": "address",
          "name": "owner",
          "type": "address"
        },
        {
          "internalType": "address",
          "name": "operator",
          "type": "address"
        }
      ],
      "name": "isApprovedForAll",
      "outputs": [
        {
          "internalType": "bool",
          "name": "",
          "type": "bool"
        }
      ],
      "stateMutability": "view",
      "type": "function"
    },
    {
      "inputs": [],
      "name": "isOwner",
      "outputs": [
        {
          "internalType": "bool",
          "name": "",
          "type": "bool"
        }
      ],
      "stateMutability": "view",
      "type": "function"
    },
    {
      "inputs": [
        {
          "internalType": "uint256",
          "name": "tokenId",
          "type": "uint256"
        }
      ],
      "name": "isTokenForSale",
      "outputs": [
        {
          "internalType": "bool",
          "name": "",
          "type": "bool"
        }
      ],
      "stateMutability": "view",
      "type": "function"
    },
    {
      "inputs": [
        {
          "internalType": "uint256",
          "name": "tokenId",
          "type": "uint256"
        },
        {
          "internalType": "uint256",
          "name": "price",
          "type": "uint256"
        }
      ],
      "name": "listTokenForSale",
      "outputs": [],
      "stateMutability": "nonpayable",
      "type": "function"
    },
    {
      "inputs": [
        {
          "internalType": "uint256",
          "name": "tokenId",
          "type": "uint256"
        }
      ],
      "name": "makeOffer",
      "outputs": [],
      "stateMutability": "payable",
      "type": "function"
    },
    {
      "inputs": [
        {
          "internalType": "address",
          "name": "to",
          "type": "address"
        },
        {
          "internalType": "uint256",
          "name": "tokenId",
          "type": "uint256"
        },
        {
          "internalType": "uint256",
          "name": "price",
          "type": "uint256"
        },
        {
          "internalType": "string",
          "name": "uri",
          "type": "string"
        }
      ],
      "name": "mintAndListForSale",
      "outputs": [],
      "stateMutability": "nonpayable",
      "type": "function"
    },
    {
      "inputs": [],
      "name": "name",
      "outputs": [
        {
          "internalType": "string",
          "name": "",
          "type": "string"
        }
      ],
      "stateMutability": "view",
      "type": "function"
    },
    {
      "inputs": [],
      "name": "owner",
      "outputs": [
        {
          "internalType": "address",
          "name": "",
          "type": "address"
        }
      ],
      "stateMutability": "view",
      "type": "function"
    },
    {
      "inputs": [
        {
          "internalType": "uint256",
          "name": "tokenId",
          "type": "uint256"
        }
      ],
      "name": "ownerOf",
      "outputs": [
        {
          "internalType": "address",
          "name": "",
          "type": "address"
        }
      ],
      "stateMutability": "view",
      "type": "function"
    },
    {
      "inputs": [
        {
          "internalType": "uint256",
          "name": "tokenId",
          "type": "uint256"
        }
      ],
      "name": "removeTokenFromSale",
      "outputs": [],
      "stateMutability": "nonpayable",
      "type": "function"
    },
    {
      "inputs": [],
      "name": "renounceOwnership",
      "outputs": [],
      "stateMutability": "nonpayable",
      "type": "function"
    },
    {
      "inputs": [
        {
          "internalType": "address",
          "name": "from",
          "type": "address"
        },
        {
          "internalType": "address",
          "name": "to",
          "type": "address"
        },
        {
          "internalType": "uint256",
          "name": "tokenId",
          "type": "uint256"
        }
      ],
      "name": "safeTransferFrom",
      "outputs": [],
      "stateMutability": "nonpayable",
      "type": "function"
    },
    {
      "inputs": [
        {
          "internalType": "address",
          "name": "from",
          "type": "address"
        },
        {
          "internalType": "address",
          "name": "to",
          "type": "address"
        },
        {
          "internalType": "uint256",
          "name": "tokenId",
          "type": "uint256"
        },
        {
          "internalType": "bytes",
          "name": "_data",
          "type": "bytes"
        }
      ],
      "name": "safeTransferFrom",
      "outputs": [],
      "stateMutability": "nonpayable",
      "type": "function"
    },
    {
      "inputs": [
        {
          "internalType": "address",
          "name": "to",
          "type": "address"
        },
        {
          "internalType": "bool",
          "name": "approved",
          "type": "bool"
        }
      ],
      "name": "setApprovalForAll",
      "outputs": [],
      "stateMutability": "nonpayable",
      "type": "function"
    },
    {
      "inputs": [
        {
          "internalType": "address",
          "name": "newRoyaltyOwner",
          "type": "address"
        }
      ],
      "name": "setRoyaltyOwner",
      "outputs": [],
      "stateMutability": "nonpayable",
      "type": "function"
    },
    {
      "inputs": [
        {
          "internalType": "bytes4",
          "name": "interfaceId",
          "type": "bytes4"
        }
      ],
      "name": "supportsInterface",
      "outputs": [
        {
          "internalType": "bool",
          "name": "",
          "type": "bool"
        }
      ],
      "stateMutability": "view",
      "type": "function"
    },
    {
      "inputs": [],
      "name": "symbol",
      "outputs": [
        {
          "internalType": "string",
          "name": "",
          "type": "string"
        }
      ],
      "stateMutability": "view",
      "type": "function"
    },
    {
      "inputs": [
        {
          "internalType": "uint256",
          "name": "tokenId",
          "type": "uint256"
        }
      ],
      "name": "tokenURI",
      "outputs": [
        {
          "internalType": "string",
          "name": "",
          "type": "string"
        }
      ],
      "stateMutability": "view",
      "type": "function"
    },
    {
      "inputs": [],
      "name": "totalVolume",
      "outputs": [
        {
          "internalType": "uint256",
          "name": "",
          "type": "uint256"
        }
      ],
      "stateMutability": "view",
      "type": "function"
    },
    {
      "inputs": [
        {
          "internalType": "address",
          "name": "from",
          "type": "address"
        },
        {
          "internalType": "address",
          "name": "to",
          "type": "address"
        },
        {
          "internalType": "uint256",
          "name": "tokenId",
          "type": "uint256"
        }
      ],
      "name": "transferFrom",
      "outputs": [],
      "stateMutability": "nonpayable",
      "type": "function"
    },
    {
      "inputs": [
        {
          "internalType": "address",
          "name": "newOwner",
          "type": "address"
        }
      ],
      "name": "transferOwnership",
      "outputs": [],
      "stateMutability": "nonpayable",
      "type": "function"
    },
    {
      "inputs": [
        {
          "internalType": "uint256",
          "name": "tokenId",
          "type": "uint256"
        },
        {
          "internalType": "uint256",
          "name": "newPrice",
          "type": "uint256"
        }
      ],
      "name": "updateTokenPrice",
      "outputs": [],
      "stateMutability": "nonpayable",
      "type": "function"
    },
    {
      "inputs": [],
      "name": "website",
      "outputs": [
        {
          "internalType": "string",
          "name": "",
          "type": "string"
        }
      ],
      "stateMutability": "view",
      "type": "function"
    },
    {
      "inputs": [
        {
          "internalType": "uint256",
          "name": "tokenId",
          "type": "uint256"
        }
      ],
      "name": "withdrawOffer",
      "outputs": [],
      "stateMutability": "nonpayable",
      "type": "function"
    },
    {
      "inputs": [],
      "name": "x",
      "outputs": [
        {
          "internalType": "string",
          "name": "",
          "type": "string"
        }
      ],
      "stateMutability": "view",
      "type": "function"
    },
    {
      "inputs": [],
      "name": "xdcLicense",
      "outputs": [
        {
          "internalType": "string",
          "name": "",
          "type": "string"
        }
      ],
      "stateMutability": "view",
      "type": "function"
    },
    {
      "inputs": [],
      "name": "xdc_will_kill_ethereum_xdc_is_the_real_ethereum_killer",
      "outputs": [
        {
          "internalType": "string",
          "name": "",
          "type": "string"
        }
      ],
      "stateMutability": "view",
      "type": "function"
    }
  ],
  "transactionHash": "0x9cfeaab4d19ebd8682589dac6cbb3286297f8ca5fe0e2001629e6b3e766bf3a5",
  "args": [],
  "numDeployments": 1,
  "solcInputHash": "5d2f9d6ce7642a7862f6854d9d7a6743",
  "bytecode": "0x60c0604052600f60808190526e22ba3432b932bab69025b4b63632b960891b60a09081526200003291601d919062000487565b506040805180820190915260098082526822aa2425a4a62622a960b91b60209092019182526200006591601e9162000487565b50604080518082019091526012808252713c1731b7b697b230b7323cb6b4b5b298991960711b6020909201918252620000a191601f9162000487565b50604080518082019091526007808252661e1918cb985c9d60ca1b6020928301908152620000d0929162000487565b506040518060c00160405280609f815260200162005d76609f91398051620001019160219160209091019062000487565b50604051806101e001604052806101b9815260200162005adf6101b991398051620001359160229160209091019062000487565b506040518060e0016040528060a6815260200162005cd060a691398051620001669160239160209091019062000487565b5060405180606001604052806038815260200162005c98603891398051620001979160289160209091019062000487565b50348015620001a557600080fd5b50620001b86301ffc9a760e01b62000403565b600180546001600160a01b0319163390811790915560405181906000907f8be0079c531659141344cd1fd0a4f28419497f9722a3daafe3b4186f6b6457e0908290a3506001805460ff60a01b1916600160a01b179055620002206380ac58cd60e01b62000403565b600154602780546001600160a01b0319166001600160a01b03909216919091179055604051635faf131d60e11b8152735FbDB2315678afecb367f032d93F642f64180aa39063bf5e263a906200027f90600f906003906004016200052d565b60006040518083038186803b1580156200029857600080fd5b505af4158015620002ad573d6000803e3d6000fd5b5050604051635faf131d60e11b8152735FbDB2315678afecb367f032d93F642f64180aa3925063bf5e263a9150620002ed9060129060049081016200052d565b60006040518083038186803b1580156200030657600080fd5b505af41580156200031b573d6000803e3d6000fd5b5050604051635faf131d60e11b8152735FbDB2315678afecb367f032d93F642f64180aa3925063bf5e263a91506200035c906015906000906004016200052d565b60006040518083038186803b1580156200037557600080fd5b505af41580156200038a573d6000803e3d6000fd5b5050604051635faf131d60e11b8152735FbDB2315678afecb367f032d93F642f64180aa3925063bf5e263a9150620003cb906018906000906004016200052d565b60006040518083038186803b158015620003e457600080fd5b505af4158015620003f9573d6000803e3d6000fd5b505050506200059d565b6001600160e01b03198082161415620004625760405162461bcd60e51b815260206004820152601c60248201527f5852433136353a20696e76616c696420696e7465726661636520696400000000604482015260640160405180910390fd5b6001600160e01b0319166000908152602081905260409020805460ff19166001179055565b828054620004959062000560565b90600052602060002090601f016020900481019282620004b9576000855562000504565b82601f10620004d457805160ff191683800117855562000504565b8280016001018555821562000504579182015b8281111562000504578251825591602001919060010190620004e7565b506200051292915062000516565b5090565b5b8082111562000512576000815560010162000517565b82815260408101600583106200055357634e487b7160e01b600052602160045260246000fd5b8260208301529392505050565b600181811c908216806200057557607f821691505b602082108114156200059757634e487b7160e01b600052602260045260246000fd5b50919050565b61553280620005ad6000396000f3fe6080604052600436106103ad5760003560e01c80637284e416116101e7578063bbb0ad521161010d578063e8cdea11116100a0578063ef18374a1161006f578063ef18374a14610a9a578063f0fb833b14610aaf578063f2fde38b14610acf578063fd00559b14610aef57600080fd5b8063e8cdea1114610a0d578063e985e9c514610a2d578063eb10a0b914610a4d578063ec4fa66514610a6d57600080fd5b8063cab3196d116100dc578063cab3196d146109ad578063cc59571a146109c2578063ce779cf7146109e2578063e489d510146109f757600080fd5b8063bbb0ad5214610938578063beb0a41614610958578063c457fb371461096d578063c87b56dd1461098d57600080fd5b8063918d407d11610185578063a22cb46511610154578063a22cb465146108ba578063ad9f20a6146108da578063b6d26003146108f8578063b88d4fde1461091857600080fd5b8063918d407d1461085257806395d89b41146108725780639a2f6474146108875780639c5f5ad81461089a57600080fd5b80638610f045116101c15780638610f045146107d4578063897925f5146107f45780638da5cb5b146108145780638f32d59b1461083257600080fd5b80637284e4161461077d57806378a895671461079257806380dfd81f146107a757600080fd5b806333513706116102d75780635d9c43ed1161026a5780636530b577116102395780636530b577146107335780636ab299751461074857806370a0823114610748578063715018a61461076857600080fd5b80635d9c43ed146106c85780635e292d19146106e85780635f81a57c146106fd5780636352211e1461071357600080fd5b80634e5a1608116102a65780634e5a16081461064f5780634fa136df1461066f5780634fed1c941461068457806355f9855a146106b357600080fd5b806333513706146105cd5780633793b5de146105e257806342842e0e1461060f57806349a315cb1461062f57600080fd5b80630b5246c81161034f5780632406e6771161031e5780632406e677146105545780632525b3d7146105745780632a33d6b214610594578063326f8b40146105b757600080fd5b80630b5246c8146104dd5780630c55699c1461050a5780630deaf3b21461051f57806323b872dd1461053457600080fd5b806306fdde031161038b57806306fdde0314610443578063081812fc14610465578063095ea7b31461049d5780630a85828d146104bd57600080fd5b806301ffc9a7146103b257806303c9759414610401578063057466ea1461042e575b600080fd5b3480156103be57600080fd5b506103ec6103cd366004614e51565b6001600160e01b03191660009081526020819052604090205460ff1690565b60405190151581526020015b60405180910390f35b34801561040d57600080fd5b5061042161041c366004614f7f565b610b0f565b6040516103f8919061517a565b61044161043c366004614f2a565b610e05565b005b34801561044f57600080fd5b50610458611248565b6040516103f891906151f4565b34801561047157600080fd5b50610485610480366004614ed6565b6112da565b6040516001600160a01b0390911681526020016103f8565b3480156104a957600080fd5b506104416104b8366004614ae8565b61131e565b3480156104c957600080fd5b506104416104d8366004614b5a565b6113f8565b3480156104e957600080fd5b506104fd6104f8366004614f4b565b6115f2565b6040516103f891906151bc565b34801561051657600080fd5b506104586116ba565b34801561052b57600080fd5b50610458611748565b34801561054057600080fd5b5061044161054f3660046149f8565b611755565b34801561056057600080fd5b5061044161056f366004614f2a565b61178c565b34801561058057600080fd5b5061044161058f3660046149a4565b6119be565b3480156105a057600080fd5b506105a9611a61565b6040519081526020016103f8565b3480156105c357600080fd5b506105a96104b081565b3480156105d957600080fd5b506105a9611b8c565b3480156105ee57600080fd5b506106026105fd366004614b13565b611c18565b6040516103f8919061510f565b34801561061b57600080fd5b5061044161062a3660046149f8565b611d20565b34801561063b57600080fd5b506104fd61064a366004614b13565b611d3b565b34801561065b57600080fd5b5061042161066a366004614f4b565b611e6b565b34801561067b57600080fd5b50610458611f28565b34801561069057600080fd5b506103ec61069f366004614ed6565b600090815260066020526040902054151590565b3480156106bf57600080fd5b506105a9611f35565b3480156106d457600080fd5b506106026106e3366004614f7f565b611f70565b3480156106f457600080fd5b506105a9612014565b34801561070957600080fd5b506105a960265481565b34801561071f57600080fd5b5061048561072e366004614ed6565b61201f565b34801561073f57600080fd5b5061045861205b565b34801561075457600080fd5b506105a96107633660046149a4565b612068565b34801561077457600080fd5b506104416120af565b34801561078957600080fd5b50610458612123565b34801561079e57600080fd5b506105a9612130565b3480156107b357600080fd5b506107c76107c2366004614f2a565b61213b565b6040516103f891906150ae565b3480156107e057600080fd5b506104416107ef366004614ed6565b6122fa565b34801561080057600080fd5b5061044161080f366004614f2a565b612447565b34801561082057600080fd5b506001546001600160a01b0316610485565b34801561083e57600080fd5b506001546001600160a01b031633146103ec565b34801561085e57600080fd5b5061044161086d366004614f06565b612631565b34801561087e57600080fd5b506104586128e8565b610441610895366004614ed6565b6128f7565b3480156108a657600080fd5b506104fd6108b5366004614f4b565b612a70565b3480156108c657600080fd5b506104416108d5366004614ab4565b612ade565b3480156108e657600080fd5b506105a969054b40b1f852bda0000081565b34801561090457600080fd5b50602754610485906001600160a01b031681565b34801561092457600080fd5b50610441610933366004614a38565b612b74565b34801561094457600080fd5b506105a9610953366004614ed6565b612bae565b34801561096457600080fd5b50610458612be9565b34801561097957600080fd5b506105a9610988366004614ed6565b612bf6565b34801561099957600080fd5b506104586109a8366004614ed6565b612c5d565b3480156109b957600080fd5b506105a9612d23565b3480156109ce57600080fd5b506104fd6109dd366004614d50565b612d5e565b3480156109ee57600080fd5b506105a9612e3e565b348015610a0357600080fd5b506105a961271081565b348015610a1957600080fd5b50610441610a28366004614ed6565b612e79565b348015610a3957600080fd5b506103ec610a483660046149c0565b613053565b348015610a5957600080fd5b506105a9610a683660046149a4565b613081565b348015610a7957600080fd5b50610a8d610a88366004614f06565b613148565b6040516103f89190615273565b348015610aa657600080fd5b50600d546105a9565b348015610abb57600080fd5b506105a9610aca366004614ed6565b6131e9565b348015610adb57600080fd5b50610441610aea3660046149a4565b613259565b348015610afb57600080fd5b50610602610b0a366004614f4b565b61328f565b6060610b1a8561334c565b610b375760405163072ec25360e41b815260040160405180910390fd5b82610b5557604051633287307760e11b815260040160405180910390fd5b60008581526009602052604090208054808610610ba7576040805160008082526020820190925290610b9d565b610b8a614857565b815260200190600190039081610b825790505b5092505050610dfd565b6000610bb38787613369565b905081811115610bc05750805b6000610bcc82896133c8565b6001600160401b03811115610bf157634e487b7160e01b600052604160045260246000fd5b604051908082528060200260200182016040528015610c2a57816020015b610c17614857565b815260200190600190039081610c0f5790505b5090508515610d0d57875b82811015610d0757848181548110610c5d57634e487b7160e01b600052603260045260246000fd5b60009182526020918290206040805160c08101825260069093029091018054835260018101549383019390935260028301546001600160a01b039081169183019190915260038301541660608201526004820154608082015260059091015460a082015282610ccc838c6133c8565b81518110610cea57634e487b7160e01b600052603260045260246000fd5b6020908102919091010152610d00816001613369565b9050610c35565b50610df7565b875b82811015610df55784610d2d6001610d2787856133c8565b906133c8565b81548110610d4b57634e487b7160e01b600052603260045260246000fd5b60009182526020918290206040805160c08101825260069093029091018054835260018101549383019390935260028301546001600160a01b039081169183019190915260038301541660608201526004820154608082015260059091015460a082015282610dba838c6133c8565b81518110610dd857634e487b7160e01b600052603260045260246000fd5b6020908102919091010152610dee816001613369565b9050610d0f565b505b93505050505b949350505050565b600154600160a01b900460ff16610e375760405162461bcd60e51b8152600401610e2e9061523c565b60405180910390fd5b6001805460ff60a01b1916905533610e4e8361201f565b6001600160a01b03161415610e7657604051630c148c4960e31b815260040160405180910390fd5b600082815260066020526040902054610ea25760405163037eff1360e21b815260040160405180910390fd5b600082815260066020526040902054818114610ed1576040516310b059ab60e11b815260040160405180910390fd5b80341015610ef25760405163cd1c886760e01b815260040160405180910390fd5b6000610efd8461201f565b90506000610f19612710610f13856104b0613426565b906134a5565b90506000610f2784836133c8565b600087815260086020908152604080832033845282529182902082516060810184528154815260018201546001600160a01b0316928101929092526002015491810182905291925015610fb957610f7e8733613502565b80602001516001600160a01b0316876000805160206154dd8339815191528360400151604051610fb091815260200190565b60405180910390a35b610fc48433896137ac565b602654610fd19086613369565b602655610fe087853388613c9e565b60408101511561106857600081602001516001600160a01b0316826040015160405160006040518083038185875af1925050503d806000811461103f576040519150601f19603f3d011682016040523d82523d6000602084013e611044565b606091505b5050905080611066576040516312171d8360e31b815260040160405180910390fd5b505b6027546040516000916001600160a01b03169085908381818185875af1925050503d80600081146110b5576040519150601f19603f3d011682016040523d82523d6000602084013e6110ba565b606091505b50509050806110dc576040516312171d8360e31b815260040160405180910390fd5b6000856001600160a01b03168460405160006040518083038185875af1925050503d8060008114611129576040519150601f19603f3d011682016040523d82523d6000602084013e61112e565b606091505b5050905080611150576040516312171d8360e31b815260040160405180910390fd5b863411156111ca57600033611165348a6133c8565b604051600081818185875af1925050503d80600081146111a1576040519150601f19603f3d011682016040523d82523d6000602084013e6111a6565b606091505b50509050806111c8576040516312171d8360e31b815260040160405180910390fd5b505b336001600160a01b0387168a7f27f204cc9f418e3e1c3771935fdb872ea9670e62ae07060f9d5bbeed6ce29d5d600161120260255490565b61120c9190615418565b60408051918252602082018d9052429082015260600160405180910390a450506001805460ff60a01b1916600160a01b17905550505050505050565b6060601d80546112579061542f565b80601f01602080910402602001604051908101604052809291908181526020018280546112839061542f565b80156112d05780601f106112a5576101008083540402835291602001916112d0565b820191906000526020600020905b8154815290600101906020018083116112b357829003601f168201915b5050505050905090565b60006112e58261334c565b6113025760405163072ec25360e41b815260040160405180910390fd5b506000908152600360205260409020546001600160a01b031690565b60006113298261201f565b9050806001600160a01b0316836001600160a01b0316141561135e5760405163250fdee360e21b815260040160405180910390fd5b336001600160a01b0382161480159061137e575061137c8133613053565b155b1561139c576040516327da82d560e11b815260040160405180910390fd5b60008281526003602052604080822080546001600160a01b0319166001600160a01b0387811691821790925591518593918516917f8c5be1e5ebec7d5bd14f71427d1e84f3dd0314c0f7b2291e5b200ac8c7c3b92591a4505050565b6001546001600160a01b031633146114225760405162461bcd60e51b8152600401610e2e90615207565b61142b8361334c565b156114485760405162a5a1f560e01b815260040160405180910390fd5b61271061145460245490565b106114725760405163d05cb60960e01b815260040160405180910390fd5b69054b40b1f852bda0000082101561149d5760405163def5fc2b60e01b815260040160405180910390fd5b6114a78484613dce565b6114b18382614048565b600083815260066020908152604091829020849055815180830183528481529081018581529151631268a03360e31b8152601b600482015281516024820152915160448301529073e7f1725E7734CE288F8367e1Bb143E90bb3F05129063934501989060640160006040518083038186803b15801561152f57600080fd5b505af4158015611543573d6000803e3d6000fd5b50506040516323446e5f60e11b81526015600482015260248101879052735FbDB2315678afecb367f032d93F642f64180aa39250634688dcbe915060440160006040518083038186803b15801561159957600080fd5b505af41580156115ad573d6000803e3d6000fd5b50505050837f3491649a16c326ca305ed14319c0106222d41417a0c19ec2ced6ec98e6158249846040516115e391815260200190565b60405180910390a25050505050565b60608261161257604051633287307760e11b815260040160405180910390fd5b604051637b359af760e11b81526015600482015260248101859052604481018490528215156064820152735FbDB2315678afecb367f032d93F642f64180aa39063f66b35ee906084015b60006040518083038186803b15801561167457600080fd5b505af4158015611688573d6000803e3d6000fd5b505050506040513d6000823e601f3d908101601f191682016040526116b09190810190614dbf565b90505b9392505050565b601f80546116c79061542f565b80601f01602080910402602001604051908101604052809291908181526020018280546116f39061542f565b80156117405780601f1061171557610100808354040283529160200191611740565b820191906000526020600020905b81548152906001019060200180831161172357829003601f168201915b505050505081565b602880546116c79061542f565b61175f338261408d565b61177c576040516327da82d560e11b815260040160405180910390fd5b6117878383836137ac565b505050565b336117968361201f565b6001600160a01b0316146117bd57604051632e6c18c960e11b815260040160405180910390fd5b600082815260066020526040902054156117ea57604051633c981f6760e21b815260040160405180910390fd5b69054b40b1f852bda000008110156118155760405163def5fc2b60e01b815260040160405180910390fd5b600082815260066020908152604091829020839055815180830183528381529081018481529151631268a03360e31b8152601b600482015281516024820152915160448301529073e7f1725E7734CE288F8367e1Bb143E90bb3F05129063934501989060640160006040518083038186803b15801561189357600080fd5b505af41580156118a7573d6000803e3d6000fd5b5050604051637bc226f960e11b81526018600482015260248101869052735FbDB2315678afecb367f032d93F642f64180aa3925063f7844df2915060440160006040518083038186803b1580156118fd57600080fd5b505af4158015611911573d6000803e3d6000fd5b50506040516323446e5f60e11b81526015600482015260248101869052735FbDB2315678afecb367f032d93F642f64180aa39250634688dcbe915060440160006040518083038186803b15801561196757600080fd5b505af415801561197b573d6000803e3d6000fd5b50505050827f3491649a16c326ca305ed14319c0106222d41417a0c19ec2ced6ec98e6158249836040516119b191815260200190565b60405180910390a2505050565b6027546001600160a01b031633146119e95760405163197dac5160e11b815260040160405180910390fd5b6027546001600160a01b0382811691161415611a1857604051631e272f7360e21b815260040160405180910390fd5b6001600160a01b038116611a3f5760405163d92e233d60e01b815260040160405180910390fd5b602780546001600160a01b0319166001600160a01b0392909216919091179055565b604051635681a05f60e01b8152601b600482015260009073e7f1725E7734CE288F8367e1Bb143E90bb3F051290635681a05f9060240160206040518083038186803b158015611aaf57600080fd5b505af4158015611ac3573d6000803e3d6000fd5b505050506040513d601f19601f82011682018060405250810190611ae79190614eee565b611b0457604051630bf46d0160e21b815260040160405180910390fd5b604051632d52f0cd60e21b8152601b600482015273e7f1725E7734CE288F8367e1Bb143E90bb3F05129063b54bc33490602401604080518083038186803b158015611b4e57600080fd5b505af4158015611b62573d6000803e3d6000fd5b505050506040513d601f19601f82011682018060405250810190611b869190614e89565b51919050565b60405163420619dd60e01b815260126004820152600090735FbDB2315678afecb367f032d93F642f64180aa39063420619dd906024015b60206040518083038186803b158015611bdb57600080fd5b505af4158015611bef573d6000803e3d6000fd5b505050506040513d601f19601f82011682018060405250810190611c139190614eee565b905090565b60606001600160a01b038516611c415760405163d92e233d60e01b815260040160405180910390fd5b82611c5f57604051633287307760e11b815260040160405180910390fd5b6001600160a01b0385166000908152600b6020526040908190209051631e9a767560e11b8152600481019190915260248101859052604481018490528215156064820152735FbDB2315678afecb367f032d93F642f64180aa390633d34ecea906084015b60006040518083038186803b158015611cdb57600080fd5b505af4158015611cef573d6000803e3d6000fd5b505050506040513d6000823e601f3d908101601f19168201604052611d179190810190614ba2565b95945050505050565b61178783838360405180602001604052806000815250612b74565b60606001600160a01b038516611d645760405163d92e233d60e01b815260040160405180910390fd5b82611d8257604051633287307760e11b815260040160405180910390fd5b6001600160a01b0385166000908152600760209081526040808320600490925290912054808610611dc3576040805160008082526020820190925290610b9d565b604051637b359af760e11b81526004810183905260248101879052604481018690528415156064820152735FbDB2315678afecb367f032d93F642f64180aa39063f66b35ee9060840160006040518083038186803b158015611e2457600080fd5b505af4158015611e38573d6000803e3d6000fd5b505050506040513d6000823e601f3d908101601f19168201604052611e609190810190614dbf565b979650505050505050565b606082611e8b57604051633287307760e11b815260040160405180910390fd5b604051631fec97cb60e01b81526012600482015260248101859052604481018490528215156064820152735FbDB2315678afecb367f032d93F642f64180aa390631fec97cb9060840160006040518083038186803b158015611eec57600080fd5b505af4158015611f00573d6000803e3d6000fd5b505050506040513d6000823e601f3d908101601f191682016040526116b09190810190614c6f565b602380546116c79061542f565b60405163420619dd60e01b815260186004820152600090735FbDB2315678afecb367f032d93F642f64180aa39063420619dd90602401611bc3565b6060611f7b8561334c565b611f985760405163072ec25360e41b815260040160405180910390fd5b82611fb657604051633287307760e11b815260040160405180910390fd5b6000858152600c60205260409081902090516329dd321d60e21b8152600481019190915260248101859052604481018490528215156064820152735FbDB2315678afecb367f032d93F642f64180aa39063a774c87490608401611cc3565b6000611c1360255490565b6000818152600260205260408120546001600160a01b0316806120555760405163072ec25360e41b815260040160405180910390fd5b92915050565b602280546116c79061542f565b60006001600160a01b0382166120915760405163d92e233d60e01b815260040160405180910390fd5b6001600160a01b038216600090815260046020526040902054612055565b6001546001600160a01b031633146120d95760405162461bcd60e51b8152600401610e2e90615207565b6001546040516000916001600160a01b0316907f8be0079c531659141344cd1fd0a4f28419497f9722a3daafe3b4186f6b6457e0908390a3600180546001600160a01b0319169055565b602180546116c79061542f565b6000611c1360245490565b6060612710831061215f57604051630f7e27e960e01b815260040160405180910390fd5b8161217d57604051633287307760e11b815260040160405180910390fd5b60006121898484613369565b905061271081111561219a57506127105b60006121a682866133c8565b6001600160401b038111156121cb57634e487b7160e01b600052604160045260246000fd5b6040519080825280602002602001820160405280156121fe57816020015b60608152602001906001900390816121e95790505b509050845b828110156122f1576000818152600a6020526040902080546122249061542f565b80601f01602080910402602001604051908101604052809291908181526020018280546122509061542f565b801561229d5780601f106122725761010080835404028352916020019161229d565b820191906000526020600020905b81548152906001019060200180831161228057829003601f168201915b5050505050826122b688846133c890919063ffffffff16565b815181106122d457634e487b7160e01b600052603260045260246000fd5b60209081029190910101526122ea816001613369565b9050612203565b50949350505050565b600154600160a01b900460ff166123235760405162461bcd60e51b8152600401610e2e9061523c565b6001805460ff60a01b1916815560008281526008602090815260408083203380855290835292819020815160608101835281548152948101546001600160a01b0316928501839052600201549084015214612391576040516313da5a4160e31b815260040160405180910390fd5b60408101516123a08333613502565b604051600090339083908381818185875af1925050503d80600081146123e2576040519150601f19603f3d011682016040523d82523d6000602084013e6123e7565b606091505b5050905080612409576040516312171d8360e31b815260040160405180910390fd5b604051828152339085906000805160206154dd8339815191529060200160405180910390a350506001805460ff60a01b1916600160a01b1790555050565b336124518361201f565b6001600160a01b03161461247857604051632e6c18c960e11b815260040160405180910390fd5b6000828152600660205260409020546124a45760405163037eff1360e21b815260040160405180910390fd5b69054b40b1f852bda000008110156124cf5760405163def5fc2b60e01b815260040160405180910390fd5b6000828152600660205260409020548114156124fe5760405163d34a940360e01b815260040160405180910390fd5b604051639477af0360e01b8152601b60048201526024810183905273e7f1725E7734CE288F8367e1Bb143E90bb3F051290639477af039060440160006040518083038186803b15801561255057600080fd5b505af4158015612564573d6000803e3d6000fd5b5050604080518082018252848152602081018681529151631268a03360e31b8152601b60048201528151602482015291516044830152925073e7f1725E7734CE288F8367e1Bb143E90bb3F0512915063934501989060640160006040518083038186803b1580156125d457600080fd5b505af41580156125e8573d6000803e3d6000fd5b50505060008481526006602052604090819020849055518491507fd9cc159fa79112d02593601db522a6696e6c5c82d9e9ca9332f89ec824935bb0906119b19085815260200190565b600154600160a01b900460ff1661265a5760405162461bcd60e51b8152600401610e2e9061523c565b6001805460ff60a01b19169055336126718361201f565b6001600160a01b03161461269857604051632e6c18c960e11b815260040160405180910390fd5b60008281526008602090815260408083206001600160a01b03808616855290835292819020815160608101835281548152600182015490941692840192909252600290910154908201819052612701576040516305995b5360e41b815260040160405180910390fd5b60408101516127108484613502565b61271b3384866137ac565b600061272f612710610f13846104b0613426565b9050600061273d83836133c8565b60265490915061274d9084613369565b60265561275c86338786613c9e565b6027546040516000916001600160a01b03169084908381818185875af1925050503d80600081146127a9576040519150601f19603f3d011682016040523d82523d6000602084013e6127ae565b606091505b50509050806127d0576040516312171d8360e31b815260040160405180910390fd5b604051600090339084908381818185875af1925050503d8060008114612812576040519150601f19603f3d011682016040523d82523d6000602084013e612817565b606091505b5050905080612839576040516312171d8360e31b815260040160405180910390fd5b866001600160a01b0316886000805160206154dd8339815191528760405161286391815260200190565b60405180910390a36001600160a01b03871633897f27f204cc9f418e3e1c3771935fdb872ea9670e62ae07060f9d5bbeed6ce29d5d60016128a360255490565b6128ad9190615418565b60408051918252602082018b9052429082015260600160405180910390a450506001805460ff60a01b1916600160a01b179055505050505050565b6060601e80546112579061542f565b600154600160a01b900460ff166129205760405162461bcd60e51b8152600401610e2e9061523c565b6001805460ff60a01b19169055336129378261201f565b6001600160a01b0316141561295f57604051630c148c4960e31b815260040160405180910390fd5b69054b40b1f852bda0000034101561298a5760405163def5fc2b60e01b815260040160405180910390fd5b600081815260086020908152604080832033845282529182902082516060810184528154815260018201546001600160a01b03169281019290925260020154918101829052908015612a01578034116129f6576040516336093f6960e01b815260040160405180910390fd5b612a0183333461410b565b612a0c8333346142ce565b8015612a2157612a21826020015184836145c3565b604051348152339084907fa3deb258a5e28a32404191b6a513bb0d0a0c028d07bbf21b38f57de9fc6ddae59060200160405180910390a350506001805460ff60a01b1916600160a01b17905550565b606082612a9057604051633287307760e11b815260040160405180910390fd5b604051637b359af760e11b81526018600482015260248101859052604481018490528215156064820152735FbDB2315678afecb367f032d93F642f64180aa39063f66b35ee9060840161165c565b6001600160a01b038216331415612b085760405163b06307db60e01b815260040160405180910390fd5b3360008181526005602090815260408083206001600160a01b03871680855290835292819020805460ff191686151590811790915590519081529192917f17307eab39ab6107e8899845ad3d59bd9653f200f220920489ca2b5937696c31910160405180910390a35050565b612b7f848484611755565b612b8b8484848461466f565b612ba85760405163159e090560e01b815260040160405180910390fd5b50505050565b6000612bb98261334c565b612bd65760405163072ec25360e41b815260040160405180910390fd5b5060009081526009602052604090205490565b602080546116c79061542f565b6000612c018261334c565b612c1e5760405163072ec25360e41b815260040160405180910390fd5b600082815260066020526040902054612c4a5760405163037eff1360e21b815260040160405180910390fd5b5060009081526006602052604090205490565b6060612c688261334c565b612c855760405163072ec25360e41b815260040160405180910390fd5b6000828152600a602052604090208054612c9e9061542f565b80601f0160208091040260200160405190810160405280929190818152602001828054612cca9061542f565b8015612d175780601f10612cec57610100808354040283529160200191612d17565b820191906000526020600020905b815481529060010190602001808311612cfa57829003601f168201915b50505050509050919050565b60405163420619dd60e01b815260156004820152600090735FbDB2315678afecb367f032d93F642f64180aa39063420619dd90602401611bc3565b60606000826001600160401b03811115612d8857634e487b7160e01b600052604160045260246000fd5b604051908082528060200260200182016040528015612db1578160200160208202803683370190505b50905060005b83811015612e365760066000868684818110612de357634e487b7160e01b600052603260045260246000fd5b90506020020135815260200190815260200160002054828281518110612e1957634e487b7160e01b600052603260045260246000fd5b602090810291909101015280612e2e8161546a565b915050612db7565b509392505050565b60405163420619dd60e01b8152600f6004820152600090735FbDB2315678afecb367f032d93F642f64180aa39063420619dd90602401611bc3565b33612e838261201f565b6001600160a01b031614612eaa57604051632e6c18c960e11b815260040160405180910390fd5b600081815260066020526040902054612ed65760405163037eff1360e21b815260040160405180910390fd5b6000818152600660205260408082209190915551637bc226f960e11b81526015600482015260248101829052735FbDB2315678afecb367f032d93F642f64180aa39063f7844df29060440160006040518083038186803b158015612f3957600080fd5b505af4158015612f4d573d6000803e3d6000fd5b50506040516323446e5f60e11b81526018600482015260248101849052735FbDB2315678afecb367f032d93F642f64180aa39250634688dcbe915060440160006040518083038186803b158015612fa357600080fd5b505af4158015612fb7573d6000803e3d6000fd5b5050604051639477af0360e01b8152601b60048201526024810184905273e7f1725E7734CE288F8367e1Bb143E90bb3F05129250639477af03915060440160006040518083038186803b15801561300d57600080fd5b505af4158015613021573d6000803e3d6000fd5b50506040518392507fccd0b7af52bf5f08ec6781299e66283301e612d1ca1ffceab3579a6364073c309150600090a250565b6001600160a01b03918216600090815260056020908152604080832093909416825291909152205460ff1690565b60006001600160a01b0382166130aa5760405163d92e233d60e01b815260040160405180910390fd5b6001600160a01b0382166000908152600b602052604090819020905163420619dd60e01b81526004810191909152735FbDB2315678afecb367f032d93F642f64180aa39063420619dd906024015b60206040518083038186803b15801561311057600080fd5b505af4158015613124573d6000803e3d6000fd5b505050506040513d601f19601f820116820180604052508101906120559190614eee565b61317560405180606001604052806000815260200160006001600160a01b03168152602001600081525090565b61317e8361334c565b61319b5760405163072ec25360e41b815260040160405180910390fd5b5060009182526008602090815260408084206001600160a01b039384168552825292839020835160608101855281548152600182015490931691830191909152600201549181019190915290565b60006131f48261334c565b6132115760405163072ec25360e41b815260040160405180910390fd5b6000828152600c602052604090819020905163420619dd60e01b81526004810191909152735FbDB2315678afecb367f032d93F642f64180aa39063420619dd906024016130f8565b6001546001600160a01b031633146132835760405162461bcd60e51b8152600401610e2e90615207565b61328c8161472d565b50565b6060826132af57604051633287307760e11b815260040160405180910390fd5b6040516329dd321d60e21b8152600f600482015260248101859052604481018490528215156064820152735FbDB2315678afecb367f032d93F642f64180aa39063a774c8749060840160006040518083038186803b15801561331057600080fd5b505af4158015613324573d6000803e3d6000fd5b505050506040513d6000823e601f3d908101601f191682016040526116b09190810190614ba2565b6000908152600260205260409020546001600160a01b0316151590565b60008061337683856153c1565b9050838110156116b35760405162461bcd60e51b815260206004820152601b60248201527f536166654d6174683a206164646974696f6e206f766572666c6f7700000000006044820152606401610e2e565b60008282111561341a5760405162461bcd60e51b815260206004820152601e60248201527f536166654d6174683a207375627472616374696f6e206f766572666c6f7700006044820152606401610e2e565b6000610dfd8385615418565b60008261343557506000612055565b600061344183856153f9565b90508261344e85836153d9565b146116b35760405162461bcd60e51b815260206004820152602160248201527f536166654d6174683a206d756c7469706c69636174696f6e206f766572666c6f6044820152607760f81b6064820152608401610e2e565b60008082116134f65760405162461bcd60e51b815260206004820152601a60248201527f536166654d6174683a206469766973696f6e206279207a65726f0000000000006044820152606401610e2e565b6000610dfd83856153d9565b60008281526008602090815260408083206001600160a01b038516845282528083208381556001810180546001600160a01b0319169055600201839055600b909152908190209051637bc226f960e11b8152600481019190915260248101839052735FbDB2315678afecb367f032d93F642f64180aa39063f7844df29060440160006040518083038186803b15801561359a57600080fd5b505af41580156135ae573d6000803e3d6000fd5b5050506001600160a01b0382166000908152600b602052604090819020905163420619dd60e01b8152735FbDB2315678afecb367f032d93F642f64180aa3925063420619dd916136049160040190815260200190565b60206040518083038186803b15801561361c57600080fd5b505af4158015613630573d6000803e3d6000fd5b505050506040513d601f19601f820116820180604052508101906136549190614eee565b613685576001600160a01b0381166000908152600b602052604081206001810191909155600201805461ffff191690555b6000828152600c60205260409081902090516363f7d54760e01b815260048101919091526001600160a01b0382166024820152735FbDB2315678afecb367f032d93F642f64180aa3906363f7d5479060440160006040518083038186803b1580156136ef57600080fd5b505af4158015613703573d6000803e3d6000fd5b50505050600f735FbDB2315678afecb367f032d93F642f64180aa363f7844df290918385604051602001613738929190615045565b60408051601f198184030181529082905280516020909101206001600160e01b031960e085901b1682526137789291600401918252602082015260400190565b60006040518083038186803b15801561379057600080fd5b505af41580156137a4573d6000803e3d6000fd5b505050505050565b826001600160a01b03166137bf8261201f565b6001600160a01b0316146137e65760405163083e5b7960e41b815260040160405180910390fd5b6001600160a01b03821661380d57604051633a954ecd60e21b815260040160405180910390fd5b613816816147ee565b6000818152600660205260409020541561397a576000818152600660205260408082209190915551637bc226f960e11b81526015600482015260248101829052735FbDB2315678afecb367f032d93F642f64180aa39063f7844df29060440160006040518083038186803b15801561388d57600080fd5b505af41580156138a1573d6000803e3d6000fd5b50506040516323446e5f60e11b81526018600482015260248101849052735FbDB2315678afecb367f032d93F642f64180aa39250634688dcbe915060440160006040518083038186803b1580156138f757600080fd5b505af415801561390b573d6000803e3d6000fd5b5050604051639477af0360e01b8152601b60048201526024810184905273e7f1725E7734CE288F8367e1Bb143E90bb3F05129250639477af03915060440160006040518083038186803b15801561396157600080fd5b505af4158015613975573d6000803e3d6000fd5b505050505b6001600160a01b038316600090815260046020526040902061399b90614829565b6001600160a01b038316600090815260046020526040902054613a17576001600160a01b03831660009081526004602090815260408083208390556007825280832060018082018590556002909101805461ffff19169055600e909252909120805460ff19169055600d54613a0f916133c8565b600d55613a9c565b6001600160a01b038316600090815260076020526040908190209051637bc226f960e11b8152600481019190915260248101829052735FbDB2315678afecb367f032d93F642f64180aa39063f7844df29060440160006040518083038186803b158015613a8357600080fd5b505af4158015613a97573d6000803e3d6000fd5b505050505b6001600160a01b0382166000908152600460205260409020613abd9061483a565b6001600160a01b0382166000908152600e602052604090205460ff16613b13576001600160a01b0382166000908152600e60205260409020805460ff19166001908117909155600d54613b0f91613369565b600d555b600081815260026020818152604080842080546001600160a01b0319166001600160a01b03881690811790915584526007909152909120015460ff16613bd4576001600160a01b0382166000908152600760205260408082209051635faf131d60e11b8152735FbDB2315678afecb367f032d93F642f64180aa39263bf5e263a92613ba39290919060040161529d565b60006040518083038186803b158015613bbb57600080fd5b505af4158015613bcf573d6000803e3d6000fd5b505050505b6001600160a01b0382166000908152600760205260409081902090516323446e5f60e11b8152600481019190915260248101829052735FbDB2315678afecb367f032d93F642f64180aa390634688dcbe9060440160006040518083038186803b158015613c4057600080fd5b505af4158015613c54573d6000803e3d6000fd5b5050505080826001600160a01b0316846001600160a01b03167fddf252ad1be2c89b69c2b068fc378daa952ba7f163c4a11628f55a4df523b3ef60405160405180910390a4505050565b6000613ca960255490565b6040805160c08101825282815260208082018981526001600160a01b03808a1684860190815289821660608601908152608086018a81524260a0880190815260008f81526009885289812080546001818101835591835298909120895160069099020197885595519587019590955591516002860180549185166001600160a01b031992831617905590516003860180549190941691161790915551600480840191909155905160059092019190915591516314b3666d60e21b815292935091735FbDB2315678afecb367f032d93F642f64180aa3916352cd99b491613d9491601291869101615310565b60006040518083038186803b158015613dac57600080fd5b505af4158015613dc0573d6000803e3d6000fd5b505050506137a4602561483a565b6001546001600160a01b03163314613df85760405162461bcd60e51b8152600401610e2e90615207565b6001600160a01b038216613e1f57604051633a954ecd60e21b815260040160405180910390fd5b613e288161334c565b15613e455760405162a5a1f560e01b815260040160405180910390fd5b600081815260026020908152604080832080546001600160a01b0319166001600160a01b038716908117909155835260049091529020613e849061483a565b613e8e602461483a565b6001600160a01b0382166000908152600e602052604090205460ff16613ee4576001600160a01b0382166000908152600e60205260409020805460ff19166001908117909155600d54613ee091613369565b600d555b6001600160a01b03821660009081526007602052604090206002015460ff16613f88576001600160a01b0382166000908152600760205260408082209051635faf131d60e11b8152735FbDB2315678afecb367f032d93F642f64180aa39263bf5e263a92613f579290919060040161529d565b60006040518083038186803b158015613f6f57600080fd5b505af4158015613f83573d6000803e3d6000fd5b505050505b6001600160a01b0382166000908152600760205260409081902090516323446e5f60e11b8152600481019190915260248101829052735FbDB2315678afecb367f032d93F642f64180aa390634688dcbe9060440160006040518083038186803b158015613ff457600080fd5b505af4158015614008573d6000803e3d6000fd5b50506040518392506001600160a01b03851691506000907fddf252ad1be2c89b69c2b068fc378daa952ba7f163c4a11628f55a4df523b3ef908290a45050565b6140518261334c565b61406e5760405163072ec25360e41b815260040160405180910390fd5b6000828152600a6020908152604090912082516117879284019061489f565b60006140988261334c565b6140b55760405163072ec25360e41b815260040160405180910390fd5b60006140c08361201f565b9050806001600160a01b0316846001600160a01b031614806140fb5750836001600160a01b03166140f0846112da565b6001600160a01b0316145b80610dfd5750610dfd8185613053565b60008381526008602090815260408083206001600160a01b03861684528252808320600201849055600b909152908190209051637bc226f960e11b8152600481019190915260248101849052735FbDB2315678afecb367f032d93F642f64180aa39063f7844df29060440160006040518083038186803b15801561418e57600080fd5b505af41580156141a2573d6000803e3d6000fd5b5050506000848152600c60205260409081902090516363f7d54760e01b815260048101919091526001600160a01b0384166024820152735FbDB2315678afecb367f032d93F642f64180aa391506363f7d5479060440160006040518083038186803b15801561421057600080fd5b505af4158015614224573d6000803e3d6000fd5b50505050600f735FbDB2315678afecb367f032d93F642f64180aa363f7844df290918486604051602001614259929190615045565b60408051601f198184030181529082905280516020909101206001600160e01b031960e085901b1682526142999291600401918252602082015260400190565b60006040518083038186803b1580156142b157600080fd5b505af41580156142c5573d6000803e3d6000fd5b50505050505050565b604080516060810182528481526001600160a01b03848116602080840182815284860187815260008a8152600884528781209481529383528684208651815591516001830180546001600160a01b03191691909616179094559251600293840155600b9052929092209091015460ff166143c5576001600160a01b0383166000908152600b6020526040908190209051635faf131d60e11b8152735FbDB2315678afecb367f032d93F642f64180aa39163bf5e263a91614394919060029060040161529d565b60006040518083038186803b1580156143ac57600080fd5b505af41580156143c0573d6000803e3d6000fd5b505050505b6001600160a01b0383166000908152600b60205260408082209051631550eb3d60e31b8152735FbDB2315678afecb367f032d93F642f64180aa39263aa8759e89261441692909186916004016152cf565b60006040518083038186803b15801561442e57600080fd5b505af4158015614442573d6000803e3d6000fd5b5050506000858152600c602052604090206002015460ff1690506144d9576000848152600c6020526040908190209051635faf131d60e11b8152735FbDB2315678afecb367f032d93F642f64180aa39163bf5e263a916144a8919060039060040161529d565b60006040518083038186803b1580156144c057600080fd5b505af41580156144d4573d6000803e3d6000fd5b505050505b6000848152600c60205260408082209051631550eb3d60e31b8152735FbDB2315678afecb367f032d93F642f64180aa39263aa8759e89261452092909186916004016152cf565b60006040518083038186803b15801561453857600080fd5b505af415801561454c573d6000803e3d6000fd5b5050604051631550eb3d60e31b8152735FbDB2315678afecb367f032d93F642f64180aa3925063aa8759e8915061458d90600f9085906001906004016152cf565b60006040518083038186803b1580156145a557600080fd5b505af41580156145b9573d6000803e3d6000fd5b5050505050505050565b6000836001600160a01b03168260405160006040518083038185875af1925050503d8060008114614610576040519150601f19603f3d011682016040523d82523d6000602084013e614615565b606091505b5050905080614637576040516312171d8360e31b815260040160405180910390fd5b836001600160a01b0316836000805160206154dd8339815191528460405161466191815260200190565b60405180910390a350505050565b60006001600160a01b0384163b61468857506001610dfd565b60405163e82388f360e01b81526000906001600160a01b0386169063e82388f3906146bd9033908a9089908990600401615071565b602060405180830381600087803b1580156146d757600080fd5b505af11580156146eb573d6000803e3d6000fd5b505050506040513d601f19601f8201168201806040525081019061470f9190614e6d565b6001600160e01b031916630a85bd0160e11b14915050949350505050565b6001600160a01b0381166147925760405162461bcd60e51b815260206004820152602660248201527f4f776e61626c653a206e6577206f776e657220697320746865207a65726f206160448201526564647265737360d01b6064820152608401610e2e565b6001546040516001600160a01b038084169216907f8be0079c531659141344cd1fd0a4f28419497f9722a3daafe3b4186f6b6457e090600090a3600180546001600160a01b0319166001600160a01b0392909216919091179055565b6000818152600360205260409020546001600160a01b03161561328c57600090815260036020526040902080546001600160a01b0319169055565b80546148369060016133c8565b9055565b600181600001600082825461484f91906153c1565b909155505050565b6040518060c00160405280600081526020016000815260200160006001600160a01b0316815260200160006001600160a01b0316815260200160008152602001600081525090565b8280546148ab9061542f565b90600052602060002090601f0160209004810192826148cd5760008555614913565b82601f106148e657805160ff1916838001178555614913565b82800160010185558215614913579182015b828111156149135782518255916020019190600101906148f8565b5061491f929150614923565b5090565b5b8082111561491f5760008155600101614924565b60006001600160401b038311156149515761495161549b565b614964601f8401601f191660200161536e565b905082815283838301111561497857600080fd5b828260208301376000602084830101529392505050565b8035801515811461499f57600080fd5b919050565b6000602082840312156149b5578081fd5b81356116b3816154b1565b600080604083850312156149d2578081fd5b82356149dd816154b1565b915060208301356149ed816154b1565b809150509250929050565b600080600060608486031215614a0c578081fd5b8335614a17816154b1565b92506020840135614a27816154b1565b929592945050506040919091013590565b60008060008060808587031215614a4d578182fd5b8435614a58816154b1565b93506020850135614a68816154b1565b92506040850135915060608501356001600160401b03811115614a89578182fd5b8501601f81018713614a99578182fd5b614aa887823560208401614938565b91505092959194509250565b60008060408385031215614ac6578182fd5b8235614ad1816154b1565b9150614adf6020840161498f565b90509250929050565b60008060408385031215614afa578182fd5b8235614b05816154b1565b946020939093013593505050565b60008060008060808587031215614b28578182fd5b8435614b33816154b1565b93506020850135925060408501359150614b4f6060860161498f565b905092959194509250565b60008060008060808587031215614b6f578182fd5b8435614b7a816154b1565b9350602085013592506040850135915060608501356001600160401b03811115614a89578182fd5b60006020808385031215614bb4578182fd5b82516001600160401b03811115614bc9578283fd5b8301601f81018513614bd9578283fd5b8051614bec614be78261539e565b61536e565b818152838101908385016060808502860187018a1015614c0a578788fd5b8795505b84861015614c615780828b031215614c24578788fd5b614c2c615324565b8251815287830151614c3d816154b1565b81890152604083810151908201528452600195909501949286019290810190614c0e565b509098975050505050505050565b60006020808385031215614c81578182fd5b82516001600160401b03811115614c96578283fd5b8301601f81018513614ca6578283fd5b8051614cb4614be78261539e565b8181528381019083850160c0808502860187018a1015614cd2578788fd5b8795505b84861015614c615780828b031215614cec578788fd5b614cf461534c565b825181528783015188820152604080840151614d0f816154b1565b90820152606083810151614d22816154b1565b908201526080838101519082015260a080840151908201528452600195909501949286019290810190614cd6565b60008060208385031215614d62578182fd5b82356001600160401b0380821115614d78578384fd5b818501915085601f830112614d8b578384fd5b813581811115614d99578485fd5b8660208260051b8501011115614dad578485fd5b60209290920196919550909350505050565b60006020808385031215614dd1578182fd5b82516001600160401b03811115614de6578283fd5b8301601f81018513614df6578283fd5b8051614e04614be78261539e565b80828252848201915084840188868560051b8701011115614e23578687fd5b8694505b83851015614e45578051835260019490940193918501918501614e27565b50979650505050505050565b600060208284031215614e62578081fd5b81356116b3816154c6565b600060208284031215614e7e578081fd5b81516116b3816154c6565b600060408284031215614e9a578081fd5b604051604081018181106001600160401b0382111715614ebc57614ebc61549b565b604052825181526020928301519281019290925250919050565b600060208284031215614ee7578081fd5b5035919050565b600060208284031215614eff578081fd5b5051919050565b60008060408385031215614f18578182fd5b8235915060208301356149ed816154b1565b60008060408385031215614f3c578182fd5b50508035926020909101359150565b600080600060608486031215614f5f578081fd5b8335925060208401359150614f766040850161498f565b90509250925092565b60008060008060808587031215614f94578182fd5b843593506020850135925060408501359150614b4f6060860161498f565b60008151808452815b81811015614fd757602081850181015186830182015201614fbb565b81811115614fe85782602083870101525b50601f01601f19169290920160200192915050565b8051825260208101516020830152604081015160018060a01b03808216604085015280606084015116606085015250506080810151608083015260a081015160a08301525050565b60609290921b6bffffffffffffffffffffffff19168252601d60f91b6014830152601582015260350190565b6001600160a01b03858116825284166020820152604081018390526080606082018190526000906150a490830184614fb2565b9695505050505050565b6000602080830181845280855180835260408601915060408160051b8701019250838701855b8281101561510257603f198886030184526150f0858351614fb2565b945092850192908501906001016150d4565b5092979650505050505050565b6020808252825182820181905260009190848201906040850190845b8181101561516e5761515b838551805182526020808201516001600160a01b031690830152604090810151910152565b928401926060929092019160010161512b565b50909695505050505050565b6020808252825182820181905260009190848201906040850190845b8181101561516e576151a9838551614ffd565b9284019260c09290920191600101615196565b6020808252825182820181905260009190848201906040850190845b8181101561516e578351835292840192918401916001016151d8565b6020815260006116b36020830184614fb2565b6020808252818101527f4f776e61626c653a2063616c6c6572206973206e6f7420746865206f776e6572604082015260600190565b6020808252601f908201527f5265656e7472616e637947756172643a207265656e7472616e742063616c6c00604082015260600190565b815181526020808301516001600160a01b0316908201526040808301519082015260608101612055565b82815260408101600583106152c257634e487b7160e01b600052602160045260246000fd5b8260208301529392505050565b83815260a081016153006020830185805182526020808201516001600160a01b031690830152604090810151910152565b8215156080830152949350505050565b82815260e081016116b36020830184614ffd565b604051606081016001600160401b03811182821017156153465761534661549b565b60405290565b60405160c081016001600160401b03811182821017156153465761534661549b565b604051601f8201601f191681016001600160401b03811182821017156153965761539661549b565b604052919050565b60006001600160401b038211156153b7576153b761549b565b5060051b60200190565b600082198211156153d4576153d4615485565b500190565b6000826153f457634e487b7160e01b81526012600452602481fd5b500490565b600081600019048311821515161561541357615413615485565b500290565b60008282101561542a5761542a615485565b500390565b600181811c9082168061544357607f821691505b6020821081141561546457634e487b7160e01b600052602260045260246000fd5b50919050565b600060001982141561547e5761547e615485565b5060010190565b634e487b7160e01b600052601160045260246000fd5b634e487b7160e01b600052604160045260246000fd5b6001600160a01b038116811461328c57600080fd5b6001600160e01b03198116811461328c57600080fdfe73184cd26907cd65c2fbe552623cabd483c3e7bc5cedafb1d7c48bab9cc40121a2646970667358221220f56969c8a14c0c763cb93ce4c15fbff71eee5cf1b014fb4dede0507ae2d8347d64736f6c63430008040033457468657265756d204c6f676f20437265617469766520436f6d6d6f6e73204c6963656e7365204174747269627574650a4465736372697074696f6e3a20546865206c6f676f206f66207468652063727970746f2063757272656e637920457468657265756d206173206f6620323031340a446174653a20323031340a536f757263653a2068747470733a2f2f63616d6f2e67697468756275736572636f6e74656e742e636f6d2f316233643030363364366138626364353663613037623065613265663066373162313761306661382f36383734373437303361326632663733373636373730366637323665326536333666366432663663366636373666373332663635373436383635373236353735366432653733373636370a417574686f723a20457468657265756d20466f756e646174696f6e0a5065726d697373696f6e3a2022416c6c2063757272656e7420457468657265756d206c6f676f732061726520756e64657220437265617469766520436f6d6d6f6e73206174747269627574696f6e20332e302e222068747470733a2f2f6372656174697665636f6d6d6f6e732e6f72672f6c6963656e7365732f62792f332e302f5844432077696c6c206b696c6c20457468657265756d212058444320697320746865205245414c20457468657265756d204b696c6c657221584443204c6f676f206c6963656e73656420756e64657220437265617469766520436f6d6d6f6e73204174747269627574696f6e2d5368617265416c696b6520342e3020496e7465726e6174696f6e616c202843432042592d534120342e30292e204c696e6b20746f20746865206c6963656e73653a2068747470733a2f2f6372656174697665636f6d6d6f6e732e6f72672f6c6963656e7365732f62792d73612f342e302f4120636f6c6c656374696f6e206f662031302c30303020457468657265756d204b696c6c6572204e465473206d696e746564206f6e6c79206f6e205844432e20323520756e69717565206261636b67726f756e64732e20343030204e46547320656163682e0a0a5844432077696c6c206b696c6c20457468657265756d212058444320697320746865205245414c20457468657265756d204b696c6c657221",
  "deployedBytecode": "0x6080604052600436106103ad5760003560e01c80637284e416116101e7578063bbb0ad521161010d578063e8cdea11116100a0578063ef18374a1161006f578063ef18374a14610a9a578063f0fb833b14610aaf578063f2fde38b14610acf578063fd00559b14610aef57600080fd5b8063e8cdea1114610a0d578063e985e9c514610a2d578063eb10a0b914610a4d578063ec4fa66514610a6d57600080fd5b8063cab3196d116100dc578063cab3196d146109ad578063cc59571a146109c2578063ce779cf7146109e2578063e489d510146109f757600080fd5b8063bbb0ad5214610938578063beb0a41614610958578063c457fb371461096d578063c87b56dd1461098d57600080fd5b8063918d407d11610185578063a22cb46511610154578063a22cb465146108ba578063ad9f20a6146108da578063b6d26003146108f8578063b88d4fde1461091857600080fd5b8063918d407d1461085257806395d89b41146108725780639a2f6474146108875780639c5f5ad81461089a57600080fd5b80638610f045116101c15780638610f045146107d4578063897925f5146107f45780638da5cb5b146108145780638f32d59b1461083257600080fd5b80637284e4161461077d57806378a895671461079257806380dfd81f146107a757600080fd5b806333513706116102d75780635d9c43ed1161026a5780636530b577116102395780636530b577146107335780636ab299751461074857806370a0823114610748578063715018a61461076857600080fd5b80635d9c43ed146106c85780635e292d19146106e85780635f81a57c146106fd5780636352211e1461071357600080fd5b80634e5a1608116102a65780634e5a16081461064f5780634fa136df1461066f5780634fed1c941461068457806355f9855a146106b357600080fd5b806333513706146105cd5780633793b5de146105e257806342842e0e1461060f57806349a315cb1461062f57600080fd5b80630b5246c81161034f5780632406e6771161031e5780632406e677146105545780632525b3d7146105745780632a33d6b214610594578063326f8b40146105b757600080fd5b80630b5246c8146104dd5780630c55699c1461050a5780630deaf3b21461051f57806323b872dd1461053457600080fd5b806306fdde031161038b57806306fdde0314610443578063081812fc14610465578063095ea7b31461049d5780630a85828d146104bd57600080fd5b806301ffc9a7146103b257806303c9759414610401578063057466ea1461042e575b600080fd5b3480156103be57600080fd5b506103ec6103cd366004614e51565b6001600160e01b03191660009081526020819052604090205460ff1690565b60405190151581526020015b60405180910390f35b34801561040d57600080fd5b5061042161041c366004614f7f565b610b0f565b6040516103f8919061517a565b61044161043c366004614f2a565b610e05565b005b34801561044f57600080fd5b50610458611248565b6040516103f891906151f4565b34801561047157600080fd5b50610485610480366004614ed6565b6112da565b6040516001600160a01b0390911681526020016103f8565b3480156104a957600080fd5b506104416104b8366004614ae8565b61131e565b3480156104c957600080fd5b506104416104d8366004614b5a565b6113f8565b3480156104e957600080fd5b506104fd6104f8366004614f4b565b6115f2565b6040516103f891906151bc565b34801561051657600080fd5b506104586116ba565b34801561052b57600080fd5b50610458611748565b34801561054057600080fd5b5061044161054f3660046149f8565b611755565b34801561056057600080fd5b5061044161056f366004614f2a565b61178c565b34801561058057600080fd5b5061044161058f3660046149a4565b6119be565b3480156105a057600080fd5b506105a9611a61565b6040519081526020016103f8565b3480156105c357600080fd5b506105a96104b081565b3480156105d957600080fd5b506105a9611b8c565b3480156105ee57600080fd5b506106026105fd366004614b13565b611c18565b6040516103f8919061510f565b34801561061b57600080fd5b5061044161062a3660046149f8565b611d20565b34801561063b57600080fd5b506104fd61064a366004614b13565b611d3b565b34801561065b57600080fd5b5061042161066a366004614f4b565b611e6b565b34801561067b57600080fd5b50610458611f28565b34801561069057600080fd5b506103ec61069f366004614ed6565b600090815260066020526040902054151590565b3480156106bf57600080fd5b506105a9611f35565b3480156106d457600080fd5b506106026106e3366004614f7f565b611f70565b3480156106f457600080fd5b506105a9612014565b34801561070957600080fd5b506105a960265481565b34801561071f57600080fd5b5061048561072e366004614ed6565b61201f565b34801561073f57600080fd5b5061045861205b565b34801561075457600080fd5b506105a96107633660046149a4565b612068565b34801561077457600080fd5b506104416120af565b34801561078957600080fd5b50610458612123565b34801561079e57600080fd5b506105a9612130565b3480156107b357600080fd5b506107c76107c2366004614f2a565b61213b565b6040516103f891906150ae565b3480156107e057600080fd5b506104416107ef366004614ed6565b6122fa565b34801561080057600080fd5b5061044161080f366004614f2a565b612447565b34801561082057600080fd5b506001546001600160a01b0316610485565b34801561083e57600080fd5b506001546001600160a01b031633146103ec565b34801561085e57600080fd5b5061044161086d366004614f06565b612631565b34801561087e57600080fd5b506104586128e8565b610441610895366004614ed6565b6128f7565b3480156108a657600080fd5b506104fd6108b5366004614f4b565b612a70565b3480156108c657600080fd5b506104416108d5366004614ab4565b612ade565b3480156108e657600080fd5b506105a969054b40b1f852bda0000081565b34801561090457600080fd5b50602754610485906001600160a01b031681565b34801561092457600080fd5b50610441610933366004614a38565b612b74565b34801561094457600080fd5b506105a9610953366004614ed6565b612bae565b34801561096457600080fd5b50610458612be9565b34801561097957600080fd5b506105a9610988366004614ed6565b612bf6565b34801561099957600080fd5b506104586109a8366004614ed6565b612c5d565b3480156109b957600080fd5b506105a9612d23565b3480156109ce57600080fd5b506104fd6109dd366004614d50565b612d5e565b3480156109ee57600080fd5b506105a9612e3e565b348015610a0357600080fd5b506105a961271081565b348015610a1957600080fd5b50610441610a28366004614ed6565b612e79565b348015610a3957600080fd5b506103ec610a483660046149c0565b613053565b348015610a5957600080fd5b506105a9610a683660046149a4565b613081565b348015610a7957600080fd5b50610a8d610a88366004614f06565b613148565b6040516103f89190615273565b348015610aa657600080fd5b50600d546105a9565b348015610abb57600080fd5b506105a9610aca366004614ed6565b6131e9565b348015610adb57600080fd5b50610441610aea3660046149a4565b613259565b348015610afb57600080fd5b50610602610b0a366004614f4b565b61328f565b6060610b1a8561334c565b610b375760405163072ec25360e41b815260040160405180910390fd5b82610b5557604051633287307760e11b815260040160405180910390fd5b60008581526009602052604090208054808610610ba7576040805160008082526020820190925290610b9d565b610b8a614857565b815260200190600190039081610b825790505b5092505050610dfd565b6000610bb38787613369565b905081811115610bc05750805b6000610bcc82896133c8565b6001600160401b03811115610bf157634e487b7160e01b600052604160045260246000fd5b604051908082528060200260200182016040528015610c2a57816020015b610c17614857565b815260200190600190039081610c0f5790505b5090508515610d0d57875b82811015610d0757848181548110610c5d57634e487b7160e01b600052603260045260246000fd5b60009182526020918290206040805160c08101825260069093029091018054835260018101549383019390935260028301546001600160a01b039081169183019190915260038301541660608201526004820154608082015260059091015460a082015282610ccc838c6133c8565b81518110610cea57634e487b7160e01b600052603260045260246000fd5b6020908102919091010152610d00816001613369565b9050610c35565b50610df7565b875b82811015610df55784610d2d6001610d2787856133c8565b906133c8565b81548110610d4b57634e487b7160e01b600052603260045260246000fd5b60009182526020918290206040805160c08101825260069093029091018054835260018101549383019390935260028301546001600160a01b039081169183019190915260038301541660608201526004820154608082015260059091015460a082015282610dba838c6133c8565b81518110610dd857634e487b7160e01b600052603260045260246000fd5b6020908102919091010152610dee816001613369565b9050610d0f565b505b93505050505b949350505050565b600154600160a01b900460ff16610e375760405162461bcd60e51b8152600401610e2e9061523c565b60405180910390fd5b6001805460ff60a01b1916905533610e4e8361201f565b6001600160a01b03161415610e7657604051630c148c4960e31b815260040160405180910390fd5b600082815260066020526040902054610ea25760405163037eff1360e21b815260040160405180910390fd5b600082815260066020526040902054818114610ed1576040516310b059ab60e11b815260040160405180910390fd5b80341015610ef25760405163cd1c886760e01b815260040160405180910390fd5b6000610efd8461201f565b90506000610f19612710610f13856104b0613426565b906134a5565b90506000610f2784836133c8565b600087815260086020908152604080832033845282529182902082516060810184528154815260018201546001600160a01b0316928101929092526002015491810182905291925015610fb957610f7e8733613502565b80602001516001600160a01b0316876000805160206154dd8339815191528360400151604051610fb091815260200190565b60405180910390a35b610fc48433896137ac565b602654610fd19086613369565b602655610fe087853388613c9e565b60408101511561106857600081602001516001600160a01b0316826040015160405160006040518083038185875af1925050503d806000811461103f576040519150601f19603f3d011682016040523d82523d6000602084013e611044565b606091505b5050905080611066576040516312171d8360e31b815260040160405180910390fd5b505b6027546040516000916001600160a01b03169085908381818185875af1925050503d80600081146110b5576040519150601f19603f3d011682016040523d82523d6000602084013e6110ba565b606091505b50509050806110dc576040516312171d8360e31b815260040160405180910390fd5b6000856001600160a01b03168460405160006040518083038185875af1925050503d8060008114611129576040519150601f19603f3d011682016040523d82523d6000602084013e61112e565b606091505b5050905080611150576040516312171d8360e31b815260040160405180910390fd5b863411156111ca57600033611165348a6133c8565b604051600081818185875af1925050503d80600081146111a1576040519150601f19603f3d011682016040523d82523d6000602084013e6111a6565b606091505b50509050806111c8576040516312171d8360e31b815260040160405180910390fd5b505b336001600160a01b0387168a7f27f204cc9f418e3e1c3771935fdb872ea9670e62ae07060f9d5bbeed6ce29d5d600161120260255490565b61120c9190615418565b60408051918252602082018d9052429082015260600160405180910390a450506001805460ff60a01b1916600160a01b17905550505050505050565b6060601d80546112579061542f565b80601f01602080910402602001604051908101604052809291908181526020018280546112839061542f565b80156112d05780601f106112a5576101008083540402835291602001916112d0565b820191906000526020600020905b8154815290600101906020018083116112b357829003601f168201915b5050505050905090565b60006112e58261334c565b6113025760405163072ec25360e41b815260040160405180910390fd5b506000908152600360205260409020546001600160a01b031690565b60006113298261201f565b9050806001600160a01b0316836001600160a01b0316141561135e5760405163250fdee360e21b815260040160405180910390fd5b336001600160a01b0382161480159061137e575061137c8133613053565b155b1561139c576040516327da82d560e11b815260040160405180910390fd5b60008281526003602052604080822080546001600160a01b0319166001600160a01b0387811691821790925591518593918516917f8c5be1e5ebec7d5bd14f71427d1e84f3dd0314c0f7b2291e5b200ac8c7c3b92591a4505050565b6001546001600160a01b031633146114225760405162461bcd60e51b8152600401610e2e90615207565b61142b8361334c565b156114485760405162a5a1f560e01b815260040160405180910390fd5b61271061145460245490565b106114725760405163d05cb60960e01b815260040160405180910390fd5b69054b40b1f852bda0000082101561149d5760405163def5fc2b60e01b815260040160405180910390fd5b6114a78484613dce565b6114b18382614048565b600083815260066020908152604091829020849055815180830183528481529081018581529151631268a03360e31b8152601b600482015281516024820152915160448301529073__$a8d7697f385934628748b447bfc67f64f7$__9063934501989060640160006040518083038186803b15801561152f57600080fd5b505af4158015611543573d6000803e3d6000fd5b50506040516323446e5f60e11b8152601560048201526024810187905273__$22da5ceab529b2d29443745cfa40db871d$__9250634688dcbe915060440160006040518083038186803b15801561159957600080fd5b505af41580156115ad573d6000803e3d6000fd5b50505050837f3491649a16c326ca305ed14319c0106222d41417a0c19ec2ced6ec98e6158249846040516115e391815260200190565b60405180910390a25050505050565b60608261161257604051633287307760e11b815260040160405180910390fd5b604051637b359af760e11b8152601560048201526024810185905260448101849052821515606482015273__$22da5ceab529b2d29443745cfa40db871d$__9063f66b35ee906084015b60006040518083038186803b15801561167457600080fd5b505af4158015611688573d6000803e3d6000fd5b505050506040513d6000823e601f3d908101601f191682016040526116b09190810190614dbf565b90505b9392505050565b601f80546116c79061542f565b80601f01602080910402602001604051908101604052809291908181526020018280546116f39061542f565b80156117405780601f1061171557610100808354040283529160200191611740565b820191906000526020600020905b81548152906001019060200180831161172357829003601f168201915b505050505081565b602880546116c79061542f565b61175f338261408d565b61177c576040516327da82d560e11b815260040160405180910390fd5b6117878383836137ac565b505050565b336117968361201f565b6001600160a01b0316146117bd57604051632e6c18c960e11b815260040160405180910390fd5b600082815260066020526040902054156117ea57604051633c981f6760e21b815260040160405180910390fd5b69054b40b1f852bda000008110156118155760405163def5fc2b60e01b815260040160405180910390fd5b600082815260066020908152604091829020839055815180830183528381529081018481529151631268a03360e31b8152601b600482015281516024820152915160448301529073__$a8d7697f385934628748b447bfc67f64f7$__9063934501989060640160006040518083038186803b15801561189357600080fd5b505af41580156118a7573d6000803e3d6000fd5b5050604051637bc226f960e11b8152601860048201526024810186905273__$22da5ceab529b2d29443745cfa40db871d$__925063f7844df2915060440160006040518083038186803b1580156118fd57600080fd5b505af4158015611911573d6000803e3d6000fd5b50506040516323446e5f60e11b8152601560048201526024810186905273__$22da5ceab529b2d29443745cfa40db871d$__9250634688dcbe915060440160006040518083038186803b15801561196757600080fd5b505af415801561197b573d6000803e3d6000fd5b50505050827f3491649a16c326ca305ed14319c0106222d41417a0c19ec2ced6ec98e6158249836040516119b191815260200190565b60405180910390a2505050565b6027546001600160a01b031633146119e95760405163197dac5160e11b815260040160405180910390fd5b6027546001600160a01b0382811691161415611a1857604051631e272f7360e21b815260040160405180910390fd5b6001600160a01b038116611a3f5760405163d92e233d60e01b815260040160405180910390fd5b602780546001600160a01b0319166001600160a01b0392909216919091179055565b604051635681a05f60e01b8152601b600482015260009073__$a8d7697f385934628748b447bfc67f64f7$__90635681a05f9060240160206040518083038186803b158015611aaf57600080fd5b505af4158015611ac3573d6000803e3d6000fd5b505050506040513d601f19601f82011682018060405250810190611ae79190614eee565b611b0457604051630bf46d0160e21b815260040160405180910390fd5b604051632d52f0cd60e21b8152601b600482015273__$a8d7697f385934628748b447bfc67f64f7$__9063b54bc33490602401604080518083038186803b158015611b4e57600080fd5b505af4158015611b62573d6000803e3d6000fd5b505050506040513d601f19601f82011682018060405250810190611b869190614e89565b51919050565b60405163420619dd60e01b81526012600482015260009073__$22da5ceab529b2d29443745cfa40db871d$__9063420619dd906024015b60206040518083038186803b158015611bdb57600080fd5b505af4158015611bef573d6000803e3d6000fd5b505050506040513d601f19601f82011682018060405250810190611c139190614eee565b905090565b60606001600160a01b038516611c415760405163d92e233d60e01b815260040160405180910390fd5b82611c5f57604051633287307760e11b815260040160405180910390fd5b6001600160a01b0385166000908152600b6020526040908190209051631e9a767560e11b815260048101919091526024810185905260448101849052821515606482015273__$22da5ceab529b2d29443745cfa40db871d$__90633d34ecea906084015b60006040518083038186803b158015611cdb57600080fd5b505af4158015611cef573d6000803e3d6000fd5b505050506040513d6000823e601f3d908101601f19168201604052611d179190810190614ba2565b95945050505050565b61178783838360405180602001604052806000815250612b74565b60606001600160a01b038516611d645760405163d92e233d60e01b815260040160405180910390fd5b82611d8257604051633287307760e11b815260040160405180910390fd5b6001600160a01b0385166000908152600760209081526040808320600490925290912054808610611dc3576040805160008082526020820190925290610b9d565b604051637b359af760e11b8152600481018390526024810187905260448101869052841515606482015273__$22da5ceab529b2d29443745cfa40db871d$__9063f66b35ee9060840160006040518083038186803b158015611e2457600080fd5b505af4158015611e38573d6000803e3d6000fd5b505050506040513d6000823e601f3d908101601f19168201604052611e609190810190614dbf565b979650505050505050565b606082611e8b57604051633287307760e11b815260040160405180910390fd5b604051631fec97cb60e01b8152601260048201526024810185905260448101849052821515606482015273__$22da5ceab529b2d29443745cfa40db871d$__90631fec97cb9060840160006040518083038186803b158015611eec57600080fd5b505af4158015611f00573d6000803e3d6000fd5b505050506040513d6000823e601f3d908101601f191682016040526116b09190810190614c6f565b602380546116c79061542f565b60405163420619dd60e01b81526018600482015260009073__$22da5ceab529b2d29443745cfa40db871d$__9063420619dd90602401611bc3565b6060611f7b8561334c565b611f985760405163072ec25360e41b815260040160405180910390fd5b82611fb657604051633287307760e11b815260040160405180910390fd5b6000858152600c60205260409081902090516329dd321d60e21b815260048101919091526024810185905260448101849052821515606482015273__$22da5ceab529b2d29443745cfa40db871d$__9063a774c87490608401611cc3565b6000611c1360255490565b6000818152600260205260408120546001600160a01b0316806120555760405163072ec25360e41b815260040160405180910390fd5b92915050565b602280546116c79061542f565b60006001600160a01b0382166120915760405163d92e233d60e01b815260040160405180910390fd5b6001600160a01b038216600090815260046020526040902054612055565b6001546001600160a01b031633146120d95760405162461bcd60e51b8152600401610e2e90615207565b6001546040516000916001600160a01b0316907f8be0079c531659141344cd1fd0a4f28419497f9722a3daafe3b4186f6b6457e0908390a3600180546001600160a01b0319169055565b602180546116c79061542f565b6000611c1360245490565b6060612710831061215f57604051630f7e27e960e01b815260040160405180910390fd5b8161217d57604051633287307760e11b815260040160405180910390fd5b60006121898484613369565b905061271081111561219a57506127105b60006121a682866133c8565b6001600160401b038111156121cb57634e487b7160e01b600052604160045260246000fd5b6040519080825280602002602001820160405280156121fe57816020015b60608152602001906001900390816121e95790505b509050845b828110156122f1576000818152600a6020526040902080546122249061542f565b80601f01602080910402602001604051908101604052809291908181526020018280546122509061542f565b801561229d5780601f106122725761010080835404028352916020019161229d565b820191906000526020600020905b81548152906001019060200180831161228057829003601f168201915b5050505050826122b688846133c890919063ffffffff16565b815181106122d457634e487b7160e01b600052603260045260246000fd5b60209081029190910101526122ea816001613369565b9050612203565b50949350505050565b600154600160a01b900460ff166123235760405162461bcd60e51b8152600401610e2e9061523c565b6001805460ff60a01b1916815560008281526008602090815260408083203380855290835292819020815160608101835281548152948101546001600160a01b0316928501839052600201549084015214612391576040516313da5a4160e31b815260040160405180910390fd5b60408101516123a08333613502565b604051600090339083908381818185875af1925050503d80600081146123e2576040519150601f19603f3d011682016040523d82523d6000602084013e6123e7565b606091505b5050905080612409576040516312171d8360e31b815260040160405180910390fd5b604051828152339085906000805160206154dd8339815191529060200160405180910390a350506001805460ff60a01b1916600160a01b1790555050565b336124518361201f565b6001600160a01b03161461247857604051632e6c18c960e11b815260040160405180910390fd5b6000828152600660205260409020546124a45760405163037eff1360e21b815260040160405180910390fd5b69054b40b1f852bda000008110156124cf5760405163def5fc2b60e01b815260040160405180910390fd5b6000828152600660205260409020548114156124fe5760405163d34a940360e01b815260040160405180910390fd5b604051639477af0360e01b8152601b60048201526024810183905273__$a8d7697f385934628748b447bfc67f64f7$__90639477af039060440160006040518083038186803b15801561255057600080fd5b505af4158015612564573d6000803e3d6000fd5b5050604080518082018252848152602081018681529151631268a03360e31b8152601b60048201528151602482015291516044830152925073__$a8d7697f385934628748b447bfc67f64f7$__915063934501989060640160006040518083038186803b1580156125d457600080fd5b505af41580156125e8573d6000803e3d6000fd5b50505060008481526006602052604090819020849055518491507fd9cc159fa79112d02593601db522a6696e6c5c82d9e9ca9332f89ec824935bb0906119b19085815260200190565b600154600160a01b900460ff1661265a5760405162461bcd60e51b8152600401610e2e9061523c565b6001805460ff60a01b19169055336126718361201f565b6001600160a01b03161461269857604051632e6c18c960e11b815260040160405180910390fd5b60008281526008602090815260408083206001600160a01b03808616855290835292819020815160608101835281548152600182015490941692840192909252600290910154908201819052612701576040516305995b5360e41b815260040160405180910390fd5b60408101516127108484613502565b61271b3384866137ac565b600061272f612710610f13846104b0613426565b9050600061273d83836133c8565b60265490915061274d9084613369565b60265561275c86338786613c9e565b6027546040516000916001600160a01b03169084908381818185875af1925050503d80600081146127a9576040519150601f19603f3d011682016040523d82523d6000602084013e6127ae565b606091505b50509050806127d0576040516312171d8360e31b815260040160405180910390fd5b604051600090339084908381818185875af1925050503d8060008114612812576040519150601f19603f3d011682016040523d82523d6000602084013e612817565b606091505b5050905080612839576040516312171d8360e31b815260040160405180910390fd5b866001600160a01b0316886000805160206154dd8339815191528760405161286391815260200190565b60405180910390a36001600160a01b03871633897f27f204cc9f418e3e1c3771935fdb872ea9670e62ae07060f9d5bbeed6ce29d5d60016128a360255490565b6128ad9190615418565b60408051918252602082018b9052429082015260600160405180910390a450506001805460ff60a01b1916600160a01b179055505050505050565b6060601e80546112579061542f565b600154600160a01b900460ff166129205760405162461bcd60e51b8152600401610e2e9061523c565b6001805460ff60a01b19169055336129378261201f565b6001600160a01b0316141561295f57604051630c148c4960e31b815260040160405180910390fd5b69054b40b1f852bda0000034101561298a5760405163def5fc2b60e01b815260040160405180910390fd5b600081815260086020908152604080832033845282529182902082516060810184528154815260018201546001600160a01b03169281019290925260020154918101829052908015612a01578034116129f6576040516336093f6960e01b815260040160405180910390fd5b612a0183333461410b565b612a0c8333346142ce565b8015612a2157612a21826020015184836145c3565b604051348152339084907fa3deb258a5e28a32404191b6a513bb0d0a0c028d07bbf21b38f57de9fc6ddae59060200160405180910390a350506001805460ff60a01b1916600160a01b17905550565b606082612a9057604051633287307760e11b815260040160405180910390fd5b604051637b359af760e11b8152601860048201526024810185905260448101849052821515606482015273__$22da5ceab529b2d29443745cfa40db871d$__9063f66b35ee9060840161165c565b6001600160a01b038216331415612b085760405163b06307db60e01b815260040160405180910390fd5b3360008181526005602090815260408083206001600160a01b03871680855290835292819020805460ff191686151590811790915590519081529192917f17307eab39ab6107e8899845ad3d59bd9653f200f220920489ca2b5937696c31910160405180910390a35050565b612b7f848484611755565b612b8b8484848461466f565b612ba85760405163159e090560e01b815260040160405180910390fd5b50505050565b6000612bb98261334c565b612bd65760405163072ec25360e41b815260040160405180910390fd5b5060009081526009602052604090205490565b602080546116c79061542f565b6000612c018261334c565b612c1e5760405163072ec25360e41b815260040160405180910390fd5b600082815260066020526040902054612c4a5760405163037eff1360e21b815260040160405180910390fd5b5060009081526006602052604090205490565b6060612c688261334c565b612c855760405163072ec25360e41b815260040160405180910390fd5b6000828152600a602052604090208054612c9e9061542f565b80601f0160208091040260200160405190810160405280929190818152602001828054612cca9061542f565b8015612d175780601f10612cec57610100808354040283529160200191612d17565b820191906000526020600020905b815481529060010190602001808311612cfa57829003601f168201915b50505050509050919050565b60405163420619dd60e01b81526015600482015260009073__$22da5ceab529b2d29443745cfa40db871d$__9063420619dd90602401611bc3565b60606000826001600160401b03811115612d8857634e487b7160e01b600052604160045260246000fd5b604051908082528060200260200182016040528015612db1578160200160208202803683370190505b50905060005b83811015612e365760066000868684818110612de357634e487b7160e01b600052603260045260246000fd5b90506020020135815260200190815260200160002054828281518110612e1957634e487b7160e01b600052603260045260246000fd5b602090810291909101015280612e2e8161546a565b915050612db7565b509392505050565b60405163420619dd60e01b8152600f600482015260009073__$22da5ceab529b2d29443745cfa40db871d$__9063420619dd90602401611bc3565b33612e838261201f565b6001600160a01b031614612eaa57604051632e6c18c960e11b815260040160405180910390fd5b600081815260066020526040902054612ed65760405163037eff1360e21b815260040160405180910390fd5b6000818152600660205260408082209190915551637bc226f960e11b8152601560048201526024810182905273__$22da5ceab529b2d29443745cfa40db871d$__9063f7844df29060440160006040518083038186803b158015612f3957600080fd5b505af4158015612f4d573d6000803e3d6000fd5b50506040516323446e5f60e11b8152601860048201526024810184905273__$22da5ceab529b2d29443745cfa40db871d$__9250634688dcbe915060440160006040518083038186803b158015612fa357600080fd5b505af4158015612fb7573d6000803e3d6000fd5b5050604051639477af0360e01b8152601b60048201526024810184905273__$a8d7697f385934628748b447bfc67f64f7$__9250639477af03915060440160006040518083038186803b15801561300d57600080fd5b505af4158015613021573d6000803e3d6000fd5b50506040518392507fccd0b7af52bf5f08ec6781299e66283301e612d1ca1ffceab3579a6364073c309150600090a250565b6001600160a01b03918216600090815260056020908152604080832093909416825291909152205460ff1690565b60006001600160a01b0382166130aa5760405163d92e233d60e01b815260040160405180910390fd5b6001600160a01b0382166000908152600b602052604090819020905163420619dd60e01b8152600481019190915273__$22da5ceab529b2d29443745cfa40db871d$__9063420619dd906024015b60206040518083038186803b15801561311057600080fd5b505af4158015613124573d6000803e3d6000fd5b505050506040513d601f19601f820116820180604052508101906120559190614eee565b61317560405180606001604052806000815260200160006001600160a01b03168152602001600081525090565b61317e8361334c565b61319b5760405163072ec25360e41b815260040160405180910390fd5b5060009182526008602090815260408084206001600160a01b039384168552825292839020835160608101855281548152600182015490931691830191909152600201549181019190915290565b60006131f48261334c565b6132115760405163072ec25360e41b815260040160405180910390fd5b6000828152600c602052604090819020905163420619dd60e01b8152600481019190915273__$22da5ceab529b2d29443745cfa40db871d$__9063420619dd906024016130f8565b6001546001600160a01b031633146132835760405162461bcd60e51b8152600401610e2e90615207565b61328c8161472d565b50565b6060826132af57604051633287307760e11b815260040160405180910390fd5b6040516329dd321d60e21b8152600f60048201526024810185905260448101849052821515606482015273__$22da5ceab529b2d29443745cfa40db871d$__9063a774c8749060840160006040518083038186803b15801561331057600080fd5b505af4158015613324573d6000803e3d6000fd5b505050506040513d6000823e601f3d908101601f191682016040526116b09190810190614ba2565b6000908152600260205260409020546001600160a01b0316151590565b60008061337683856153c1565b9050838110156116b35760405162461bcd60e51b815260206004820152601b60248201527f536166654d6174683a206164646974696f6e206f766572666c6f7700000000006044820152606401610e2e565b60008282111561341a5760405162461bcd60e51b815260206004820152601e60248201527f536166654d6174683a207375627472616374696f6e206f766572666c6f7700006044820152606401610e2e565b6000610dfd8385615418565b60008261343557506000612055565b600061344183856153f9565b90508261344e85836153d9565b146116b35760405162461bcd60e51b815260206004820152602160248201527f536166654d6174683a206d756c7469706c69636174696f6e206f766572666c6f6044820152607760f81b6064820152608401610e2e565b60008082116134f65760405162461bcd60e51b815260206004820152601a60248201527f536166654d6174683a206469766973696f6e206279207a65726f0000000000006044820152606401610e2e565b6000610dfd83856153d9565b60008281526008602090815260408083206001600160a01b038516845282528083208381556001810180546001600160a01b0319169055600201839055600b909152908190209051637bc226f960e11b815260048101919091526024810183905273__$22da5ceab529b2d29443745cfa40db871d$__9063f7844df29060440160006040518083038186803b15801561359a57600080fd5b505af41580156135ae573d6000803e3d6000fd5b5050506001600160a01b0382166000908152600b602052604090819020905163420619dd60e01b815273__$22da5ceab529b2d29443745cfa40db871d$__925063420619dd916136049160040190815260200190565b60206040518083038186803b15801561361c57600080fd5b505af4158015613630573d6000803e3d6000fd5b505050506040513d601f19601f820116820180604052508101906136549190614eee565b613685576001600160a01b0381166000908152600b602052604081206001810191909155600201805461ffff191690555b6000828152600c60205260409081902090516363f7d54760e01b815260048101919091526001600160a01b038216602482015273__$22da5ceab529b2d29443745cfa40db871d$__906363f7d5479060440160006040518083038186803b1580156136ef57600080fd5b505af4158015613703573d6000803e3d6000fd5b50505050600f73__$22da5ceab529b2d29443745cfa40db871d$__63f7844df290918385604051602001613738929190615045565b60408051601f198184030181529082905280516020909101206001600160e01b031960e085901b1682526137789291600401918252602082015260400190565b60006040518083038186803b15801561379057600080fd5b505af41580156137a4573d6000803e3d6000fd5b505050505050565b826001600160a01b03166137bf8261201f565b6001600160a01b0316146137e65760405163083e5b7960e41b815260040160405180910390fd5b6001600160a01b03821661380d57604051633a954ecd60e21b815260040160405180910390fd5b613816816147ee565b6000818152600660205260409020541561397a576000818152600660205260408082209190915551637bc226f960e11b8152601560048201526024810182905273__$22da5ceab529b2d29443745cfa40db871d$__9063f7844df29060440160006040518083038186803b15801561388d57600080fd5b505af41580156138a1573d6000803e3d6000fd5b50506040516323446e5f60e11b8152601860048201526024810184905273__$22da5ceab529b2d29443745cfa40db871d$__9250634688dcbe915060440160006040518083038186803b1580156138f757600080fd5b505af415801561390b573d6000803e3d6000fd5b5050604051639477af0360e01b8152601b60048201526024810184905273__$a8d7697f385934628748b447bfc67f64f7$__9250639477af03915060440160006040518083038186803b15801561396157600080fd5b505af4158015613975573d6000803e3d6000fd5b505050505b6001600160a01b038316600090815260046020526040902061399b90614829565b6001600160a01b038316600090815260046020526040902054613a17576001600160a01b03831660009081526004602090815260408083208390556007825280832060018082018590556002909101805461ffff19169055600e909252909120805460ff19169055600d54613a0f916133c8565b600d55613a9c565b6001600160a01b038316600090815260076020526040908190209051637bc226f960e11b815260048101919091526024810182905273__$22da5ceab529b2d29443745cfa40db871d$__9063f7844df29060440160006040518083038186803b158015613a8357600080fd5b505af4158015613a97573d6000803e3d6000fd5b505050505b6001600160a01b0382166000908152600460205260409020613abd9061483a565b6001600160a01b0382166000908152600e602052604090205460ff16613b13576001600160a01b0382166000908152600e60205260409020805460ff19166001908117909155600d54613b0f91613369565b600d555b600081815260026020818152604080842080546001600160a01b0319166001600160a01b03881690811790915584526007909152909120015460ff16613bd4576001600160a01b0382166000908152600760205260408082209051635faf131d60e11b815273__$22da5ceab529b2d29443745cfa40db871d$__9263bf5e263a92613ba39290919060040161529d565b60006040518083038186803b158015613bbb57600080fd5b505af4158015613bcf573d6000803e3d6000fd5b505050505b6001600160a01b0382166000908152600760205260409081902090516323446e5f60e11b815260048101919091526024810182905273__$22da5ceab529b2d29443745cfa40db871d$__90634688dcbe9060440160006040518083038186803b158015613c4057600080fd5b505af4158015613c54573d6000803e3d6000fd5b5050505080826001600160a01b0316846001600160a01b03167fddf252ad1be2c89b69c2b068fc378daa952ba7f163c4a11628f55a4df523b3ef60405160405180910390a4505050565b6000613ca960255490565b6040805160c08101825282815260208082018981526001600160a01b03808a1684860190815289821660608601908152608086018a81524260a0880190815260008f81526009885289812080546001818101835591835298909120895160069099020197885595519587019590955591516002860180549185166001600160a01b031992831617905590516003860180549190941691161790915551600480840191909155905160059092019190915591516314b3666d60e21b81529293509173__$22da5ceab529b2d29443745cfa40db871d$__916352cd99b491613d9491601291869101615310565b60006040518083038186803b158015613dac57600080fd5b505af4158015613dc0573d6000803e3d6000fd5b505050506137a4602561483a565b6001546001600160a01b03163314613df85760405162461bcd60e51b8152600401610e2e90615207565b6001600160a01b038216613e1f57604051633a954ecd60e21b815260040160405180910390fd5b613e288161334c565b15613e455760405162a5a1f560e01b815260040160405180910390fd5b600081815260026020908152604080832080546001600160a01b0319166001600160a01b038716908117909155835260049091529020613e849061483a565b613e8e602461483a565b6001600160a01b0382166000908152600e602052604090205460ff16613ee4576001600160a01b0382166000908152600e60205260409020805460ff19166001908117909155600d54613ee091613369565b600d555b6001600160a01b03821660009081526007602052604090206002015460ff16613f88576001600160a01b0382166000908152600760205260408082209051635faf131d60e11b815273__$22da5ceab529b2d29443745cfa40db871d$__9263bf5e263a92613f579290919060040161529d565b60006040518083038186803b158015613f6f57600080fd5b505af4158015613f83573d6000803e3d6000fd5b505050505b6001600160a01b0382166000908152600760205260409081902090516323446e5f60e11b815260048101919091526024810182905273__$22da5ceab529b2d29443745cfa40db871d$__90634688dcbe9060440160006040518083038186803b158015613ff457600080fd5b505af4158015614008573d6000803e3d6000fd5b50506040518392506001600160a01b03851691506000907fddf252ad1be2c89b69c2b068fc378daa952ba7f163c4a11628f55a4df523b3ef908290a45050565b6140518261334c565b61406e5760405163072ec25360e41b815260040160405180910390fd5b6000828152600a6020908152604090912082516117879284019061489f565b60006140988261334c565b6140b55760405163072ec25360e41b815260040160405180910390fd5b60006140c08361201f565b9050806001600160a01b0316846001600160a01b031614806140fb5750836001600160a01b03166140f0846112da565b6001600160a01b0316145b80610dfd5750610dfd8185613053565b60008381526008602090815260408083206001600160a01b03861684528252808320600201849055600b909152908190209051637bc226f960e11b815260048101919091526024810184905273__$22da5ceab529b2d29443745cfa40db871d$__9063f7844df29060440160006040518083038186803b15801561418e57600080fd5b505af41580156141a2573d6000803e3d6000fd5b5050506000848152600c60205260409081902090516363f7d54760e01b815260048101919091526001600160a01b038416602482015273__$22da5ceab529b2d29443745cfa40db871d$__91506363f7d5479060440160006040518083038186803b15801561421057600080fd5b505af4158015614224573d6000803e3d6000fd5b50505050600f73__$22da5ceab529b2d29443745cfa40db871d$__63f7844df290918486604051602001614259929190615045565b60408051601f198184030181529082905280516020909101206001600160e01b031960e085901b1682526142999291600401918252602082015260400190565b60006040518083038186803b1580156142b157600080fd5b505af41580156142c5573d6000803e3d6000fd5b50505050505050565b604080516060810182528481526001600160a01b03848116602080840182815284860187815260008a8152600884528781209481529383528684208651815591516001830180546001600160a01b03191691909616179094559251600293840155600b9052929092209091015460ff166143c5576001600160a01b0383166000908152600b6020526040908190209051635faf131d60e11b815273__$22da5ceab529b2d29443745cfa40db871d$__9163bf5e263a91614394919060029060040161529d565b60006040518083038186803b1580156143ac57600080fd5b505af41580156143c0573d6000803e3d6000fd5b505050505b6001600160a01b0383166000908152600b60205260408082209051631550eb3d60e31b815273__$22da5ceab529b2d29443745cfa40db871d$__9263aa8759e89261441692909186916004016152cf565b60006040518083038186803b15801561442e57600080fd5b505af4158015614442573d6000803e3d6000fd5b5050506000858152600c602052604090206002015460ff1690506144d9576000848152600c6020526040908190209051635faf131d60e11b815273__$22da5ceab529b2d29443745cfa40db871d$__9163bf5e263a916144a8919060039060040161529d565b60006040518083038186803b1580156144c057600080fd5b505af41580156144d4573d6000803e3d6000fd5b505050505b6000848152600c60205260408082209051631550eb3d60e31b815273__$22da5ceab529b2d29443745cfa40db871d$__9263aa8759e89261452092909186916004016152cf565b60006040518083038186803b15801561453857600080fd5b505af415801561454c573d6000803e3d6000fd5b5050604051631550eb3d60e31b815273__$22da5ceab529b2d29443745cfa40db871d$__925063aa8759e8915061458d90600f9085906001906004016152cf565b60006040518083038186803b1580156145a557600080fd5b505af41580156145b9573d6000803e3d6000fd5b5050505050505050565b6000836001600160a01b03168260405160006040518083038185875af1925050503d8060008114614610576040519150601f19603f3d011682016040523d82523d6000602084013e614615565b606091505b5050905080614637576040516312171d8360e31b815260040160405180910390fd5b836001600160a01b0316836000805160206154dd8339815191528460405161466191815260200190565b60405180910390a350505050565b60006001600160a01b0384163b61468857506001610dfd565b60405163e82388f360e01b81526000906001600160a01b0386169063e82388f3906146bd9033908a9089908990600401615071565b602060405180830381600087803b1580156146d757600080fd5b505af11580156146eb573d6000803e3d6000fd5b505050506040513d601f19601f8201168201806040525081019061470f9190614e6d565b6001600160e01b031916630a85bd0160e11b14915050949350505050565b6001600160a01b0381166147925760405162461bcd60e51b815260206004820152602660248201527f4f776e61626c653a206e6577206f776e657220697320746865207a65726f206160448201526564647265737360d01b6064820152608401610e2e565b6001546040516001600160a01b038084169216907f8be0079c531659141344cd1fd0a4f28419497f9722a3daafe3b4186f6b6457e090600090a3600180546001600160a01b0319166001600160a01b0392909216919091179055565b6000818152600360205260409020546001600160a01b03161561328c57600090815260036020526040902080546001600160a01b0319169055565b80546148369060016133c8565b9055565b600181600001600082825461484f91906153c1565b909155505050565b6040518060c00160405280600081526020016000815260200160006001600160a01b0316815260200160006001600160a01b0316815260200160008152602001600081525090565b8280546148ab9061542f565b90600052602060002090601f0160209004810192826148cd5760008555614913565b82601f106148e657805160ff1916838001178555614913565b82800160010185558215614913579182015b828111156149135782518255916020019190600101906148f8565b5061491f929150614923565b5090565b5b8082111561491f5760008155600101614924565b60006001600160401b038311156149515761495161549b565b614964601f8401601f191660200161536e565b905082815283838301111561497857600080fd5b828260208301376000602084830101529392505050565b8035801515811461499f57600080fd5b919050565b6000602082840312156149b5578081fd5b81356116b3816154b1565b600080604083850312156149d2578081fd5b82356149dd816154b1565b915060208301356149ed816154b1565b809150509250929050565b600080600060608486031215614a0c578081fd5b8335614a17816154b1565b92506020840135614a27816154b1565b929592945050506040919091013590565b60008060008060808587031215614a4d578182fd5b8435614a58816154b1565b93506020850135614a68816154b1565b92506040850135915060608501356001600160401b03811115614a89578182fd5b8501601f81018713614a99578182fd5b614aa887823560208401614938565b91505092959194509250565b60008060408385031215614ac6578182fd5b8235614ad1816154b1565b9150614adf6020840161498f565b90509250929050565b60008060408385031215614afa578182fd5b8235614b05816154b1565b946020939093013593505050565b60008060008060808587031215614b28578182fd5b8435614b33816154b1565b93506020850135925060408501359150614b4f6060860161498f565b905092959194509250565b60008060008060808587031215614b6f578182fd5b8435614b7a816154b1565b9350602085013592506040850135915060608501356001600160401b03811115614a89578182fd5b60006020808385031215614bb4578182fd5b82516001600160401b03811115614bc9578283fd5b8301601f81018513614bd9578283fd5b8051614bec614be78261539e565b61536e565b818152838101908385016060808502860187018a1015614c0a578788fd5b8795505b84861015614c615780828b031215614c24578788fd5b614c2c615324565b8251815287830151614c3d816154b1565b81890152604083810151908201528452600195909501949286019290810190614c0e565b509098975050505050505050565b60006020808385031215614c81578182fd5b82516001600160401b03811115614c96578283fd5b8301601f81018513614ca6578283fd5b8051614cb4614be78261539e565b8181528381019083850160c0808502860187018a1015614cd2578788fd5b8795505b84861015614c615780828b031215614cec578788fd5b614cf461534c565b825181528783015188820152604080840151614d0f816154b1565b90820152606083810151614d22816154b1565b908201526080838101519082015260a080840151908201528452600195909501949286019290810190614cd6565b60008060208385031215614d62578182fd5b82356001600160401b0380821115614d78578384fd5b818501915085601f830112614d8b578384fd5b813581811115614d99578485fd5b8660208260051b8501011115614dad578485fd5b60209290920196919550909350505050565b60006020808385031215614dd1578182fd5b82516001600160401b03811115614de6578283fd5b8301601f81018513614df6578283fd5b8051614e04614be78261539e565b80828252848201915084840188868560051b8701011115614e23578687fd5b8694505b83851015614e45578051835260019490940193918501918501614e27565b50979650505050505050565b600060208284031215614e62578081fd5b81356116b3816154c6565b600060208284031215614e7e578081fd5b81516116b3816154c6565b600060408284031215614e9a578081fd5b604051604081018181106001600160401b0382111715614ebc57614ebc61549b565b604052825181526020928301519281019290925250919050565b600060208284031215614ee7578081fd5b5035919050565b600060208284031215614eff578081fd5b5051919050565b60008060408385031215614f18578182fd5b8235915060208301356149ed816154b1565b60008060408385031215614f3c578182fd5b50508035926020909101359150565b600080600060608486031215614f5f578081fd5b8335925060208401359150614f766040850161498f565b90509250925092565b60008060008060808587031215614f94578182fd5b843593506020850135925060408501359150614b4f6060860161498f565b60008151808452815b81811015614fd757602081850181015186830182015201614fbb565b81811115614fe85782602083870101525b50601f01601f19169290920160200192915050565b8051825260208101516020830152604081015160018060a01b03808216604085015280606084015116606085015250506080810151608083015260a081015160a08301525050565b60609290921b6bffffffffffffffffffffffff19168252601d60f91b6014830152601582015260350190565b6001600160a01b03858116825284166020820152604081018390526080606082018190526000906150a490830184614fb2565b9695505050505050565b6000602080830181845280855180835260408601915060408160051b8701019250838701855b8281101561510257603f198886030184526150f0858351614fb2565b945092850192908501906001016150d4565b5092979650505050505050565b6020808252825182820181905260009190848201906040850190845b8181101561516e5761515b838551805182526020808201516001600160a01b031690830152604090810151910152565b928401926060929092019160010161512b565b50909695505050505050565b6020808252825182820181905260009190848201906040850190845b8181101561516e576151a9838551614ffd565b9284019260c09290920191600101615196565b6020808252825182820181905260009190848201906040850190845b8181101561516e578351835292840192918401916001016151d8565b6020815260006116b36020830184614fb2565b6020808252818101527f4f776e61626c653a2063616c6c6572206973206e6f7420746865206f776e6572604082015260600190565b6020808252601f908201527f5265656e7472616e637947756172643a207265656e7472616e742063616c6c00604082015260600190565b815181526020808301516001600160a01b0316908201526040808301519082015260608101612055565b82815260408101600583106152c257634e487b7160e01b600052602160045260246000fd5b8260208301529392505050565b83815260a081016153006020830185805182526020808201516001600160a01b031690830152604090810151910152565b8215156080830152949350505050565b82815260e081016116b36020830184614ffd565b604051606081016001600160401b03811182821017156153465761534661549b565b60405290565b60405160c081016001600160401b03811182821017156153465761534661549b565b604051601f8201601f191681016001600160401b03811182821017156153965761539661549b565b604052919050565b60006001600160401b038211156153b7576153b761549b565b5060051b60200190565b600082198211156153d4576153d4615485565b500190565b6000826153f457634e487b7160e01b81526012600452602481fd5b500490565b600081600019048311821515161561541357615413615485565b500290565b60008282101561542a5761542a615485565b500390565b600181811c9082168061544357607f821691505b6020821081141561546457634e487b7160e01b600052602260045260246000fd5b50919050565b600060001982141561547e5761547e615485565b5060010190565b634e487b7160e01b600052601160045260246000fd5b634e487b7160e01b600052604160045260246000fd5b6001600160a01b038116811461328c57600080fd5b6001600160e01b03198116811461328c57600080fdfe73184cd26907cd65c2fbe552623cabd483c3e7bc5cedafb1d7c48bab9cc40121a2646970667358221220f56969c8a14c0c763cb93ce4c15fbff71eee5cf1b014fb4dede0507ae2d8347d64736f6c63430008040033",
  "libraries": {
    "OrderStatisticsTree": "0x5FbDB2315678afecb367f032d93F642f64180aa3",
    "CustomMinHeapLib": "0xe7f1725E7734CE288F8367e1Bb143E90bb3F0512"
  },
  "devdoc": {
    "kind": "dev",
    "methods": {
      "balanceOf(address)": {
        "details": "Returns the number of NFTs in `owner`'s account."
      },
      "isOwner()": {
        "details": "Returns true if the caller is the current owner."
      },
      "owner()": {
        "details": "Returns the address of the current owner."
      },
      "ownerOf(uint256)": {
        "details": "Returns the owner of the NFT specified by `tokenId`."
      },
      "renounceOwnership()": {
        "details": "Leaves the contract without owner. It will not be possible to call `onlyOwner` functions anymore. Can only be called by the current owner. NOTE: Renouncing ownership will leave the contract without an owner, thereby removing any functionality that is only available to the owner."
      },
      "safeTransferFrom(address,address,uint256)": {
        "details": "Transfers a specific NFT (`tokenId`) from one account (`from`) to another (`to`).  Requirements: - `from`, `to` cannot be zero. - `tokenId` must be owned by `from`. - If the caller is not `from`, it must be have been allowed to move this NFT by either `approve` or `setApproveForAll`."
      },
      "supportsInterface(bytes4)": {
        "details": "See `IXRC165.supportsInterface`. Time complexity O(1), guaranteed to always use less than 30 000 gas."
      },
      "transferFrom(address,address,uint256)": {
        "details": "Transfers a specific NFT (`tokenId`) from one account (`from`) to another (`to`). Requirements: - If the caller is not `from`, it must be approved to move this NFT by either `approve` or `setApproveForAll`."
      },
      "transferOwnership(address)": {
        "details": "Transfers ownership of the contract to a new account (`newOwner`). Can only be called by the current owner."
      }
    },
    "version": 1
  },
  "userdoc": {
    "kind": "user",
    "methods": {},
    "version": 1
  },
  "storageLayout": {
    "storage": [
      {
        "astId": 8368,
        "contract": "contracts/EthereumKiller.sol:EthereumKiller",
        "label": "_supportedInterfaces",
        "offset": 0,
        "slot": "0",
        "type": "t_mapping(t_bytes4,t_bool)"
      },
      {
        "astId": 8061,
        "contract": "contracts/EthereumKiller.sol:EthereumKiller",
        "label": "_owner",
        "offset": 0,
        "slot": "1",
        "type": "t_address"
      },
      {
        "astId": 8188,
        "contract": "contracts/EthereumKiller.sol:EthereumKiller",
        "label": "_notEntered",
        "offset": 20,
        "slot": "1",
        "type": "t_bool"
      },
      {
        "astId": 615,
        "contract": "contracts/EthereumKiller.sol:EthereumKiller",
        "label": "_tokenOwner",
        "offset": 0,
        "slot": "2",
        "type": "t_mapping(t_uint256,t_address)"
      },
      {
        "astId": 619,
        "contract": "contracts/EthereumKiller.sol:EthereumKiller",
        "label": "_tokenApprovals",
        "offset": 0,
        "slot": "3",
        "type": "t_mapping(t_uint256,t_address)"
      },
      {
        "astId": 624,
        "contract": "contracts/EthereumKiller.sol:EthereumKiller",
        "label": "_ownedTokensCount",
        "offset": 0,
        "slot": "4",
        "type": "t_mapping(t_address,t_struct(Counter)7872_storage)"
      },
      {
        "astId": 630,
        "contract": "contracts/EthereumKiller.sol:EthereumKiller",
        "label": "_operatorApprovals",
        "offset": 0,
        "slot": "5",
        "type": "t_mapping(t_address,t_mapping(t_address,t_bool))"
      },
      {
        "astId": 634,
        "contract": "contracts/EthereumKiller.sol:EthereumKiller",
        "label": "_tokenPrices",
        "offset": 0,
        "slot": "6",
        "type": "t_mapping(t_uint256,t_uint256)"
      },
      {
        "astId": 639,
        "contract": "contracts/EthereumKiller.sol:EthereumKiller",
        "label": "_ownedTokens",
        "offset": 0,
        "slot": "7",
        "type": "t_mapping(t_address,t_struct(Tree)3518_storage)"
      },
      {
        "astId": 646,
        "contract": "contracts/EthereumKiller.sol:EthereumKiller",
        "label": "_tokenToBidderToOfferMap",
        "offset": 0,
        "slot": "8",
        "type": "t_mapping(t_uint256,t_mapping(t_address,t_struct(Offer)3467_storage))"
      },
      {
        "astId": 652,
        "contract": "contracts/EthereumKiller.sol:EthereumKiller",
        "label": "_tokenSalesHistory",
        "offset": 0,
        "slot": "9",
        "type": "t_mapping(t_uint256,t_array(t_struct(Sale)3480_storage)dyn_storage)"
      },
      {
        "astId": 656,
        "contract": "contracts/EthereumKiller.sol:EthereumKiller",
        "label": "_tokenURIs",
        "offset": 0,
        "slot": "10",
        "type": "t_mapping(t_uint256,t_string_storage)"
      },
      {
        "astId": 661,
        "contract": "contracts/EthereumKiller.sol:EthereumKiller",
        "label": "bidderAddressToOffers",
        "offset": 0,
        "slot": "11",
        "type": "t_mapping(t_address,t_struct(Tree)3518_storage)"
      },
      {
        "astId": 666,
        "contract": "contracts/EthereumKiller.sol:EthereumKiller",
        "label": "tokenToOffers",
        "offset": 0,
        "slot": "12",
        "type": "t_mapping(t_uint256,t_struct(Tree)3518_storage)"
      },
      {
        "astId": 668,
        "contract": "contracts/EthereumKiller.sol:EthereumKiller",
        "label": "_uniqueOwnerCount",
        "offset": 0,
        "slot": "13",
        "type": "t_uint256"
      },
      {
        "astId": 672,
        "contract": "contracts/EthereumKiller.sol:EthereumKiller",
        "label": "_uniqueOwners",
        "offset": 0,
        "slot": "14",
        "type": "t_mapping(t_address,t_bool)"
      },
      {
        "astId": 675,
        "contract": "contracts/EthereumKiller.sol:EthereumKiller",
        "label": "globalOffers",
        "offset": 0,
        "slot": "15",
        "type": "t_struct(Tree)3518_storage"
      },
      {
        "astId": 678,
        "contract": "contracts/EthereumKiller.sol:EthereumKiller",
        "label": "globalSales",
        "offset": 0,
        "slot": "18",
        "type": "t_struct(Tree)3518_storage"
      },
      {
        "astId": 681,
        "contract": "contracts/EthereumKiller.sol:EthereumKiller",
        "label": "forSaleTokens",
        "offset": 0,
        "slot": "21",
        "type": "t_struct(Tree)3518_storage"
      },
      {
        "astId": 684,
        "contract": "contracts/EthereumKiller.sol:EthereumKiller",
        "label": "notForSaleTokens",
        "offset": 0,
        "slot": "24",
        "type": "t_struct(Tree)3518_storage"
      },
      {
        "astId": 687,
        "contract": "contracts/EthereumKiller.sol:EthereumKiller",
        "label": "floorPriceMinHeap",
        "offset": 0,
        "slot": "27",
        "type": "t_struct(Heap)15_storage"
      },
      {
        "astId": 690,
        "contract": "contracts/EthereumKiller.sol:EthereumKiller",
        "label": "_name",
        "offset": 0,
        "slot": "29",
        "type": "t_string_storage"
      },
      {
        "astId": 693,
        "contract": "contracts/EthereumKiller.sol:EthereumKiller",
        "label": "_symbol",
        "offset": 0,
        "slot": "30",
        "type": "t_string_storage"
      },
      {
        "astId": 696,
        "contract": "contracts/EthereumKiller.sol:EthereumKiller",
        "label": "x",
        "offset": 0,
        "slot": "31",
        "type": "t_string_storage"
      },
      {
        "astId": 699,
        "contract": "contracts/EthereumKiller.sol:EthereumKiller",
        "label": "website",
        "offset": 0,
        "slot": "32",
        "type": "t_string_storage"
      },
      {
        "astId": 702,
        "contract": "contracts/EthereumKiller.sol:EthereumKiller",
        "label": "description",
        "offset": 0,
        "slot": "33",
        "type": "t_string_storage"
      },
      {
        "astId": 705,
        "contract": "contracts/EthereumKiller.sol:EthereumKiller",
        "label": "ethereumLicense",
        "offset": 0,
        "slot": "34",
        "type": "t_string_storage"
      },
      {
        "astId": 708,
        "contract": "contracts/EthereumKiller.sol:EthereumKiller",
        "label": "xdcLicense",
        "offset": 0,
        "slot": "35",
        "type": "t_string_storage"
      },
      {
        "astId": 711,
        "contract": "contracts/EthereumKiller.sol:EthereumKiller",
        "label": "_totalMintedTokens",
        "offset": 0,
        "slot": "36",
        "type": "t_struct(Counter)7872_storage"
      },
      {
        "astId": 714,
        "contract": "contracts/EthereumKiller.sol:EthereumKiller",
        "label": "_totalSalesCount",
        "offset": 0,
        "slot": "37",
        "type": "t_struct(Counter)7872_storage"
      },
      {
        "astId": 728,
        "contract": "contracts/EthereumKiller.sol:EthereumKiller",
        "label": "totalVolume",
        "offset": 0,
        "slot": "38",
        "type": "t_uint256"
      },
      {
        "astId": 730,
        "contract": "contracts/EthereumKiller.sol:EthereumKiller",
        "label": "ROYALTY_OWNER",
        "offset": 0,
        "slot": "39",
        "type": "t_address"
      },
      {
        "astId": 733,
        "contract": "contracts/EthereumKiller.sol:EthereumKiller",
        "label": "xdc_will_kill_ethereum_xdc_is_the_real_ethereum_killer",
        "offset": 0,
        "slot": "40",
        "type": "t_string_storage"
      }
    ],
    "types": {
      "t_address": {
        "encoding": "inplace",
        "label": "address",
        "numberOfBytes": "20"
      },
      "t_array(t_struct(PriceToken)6_storage)dyn_storage": {
        "base": "t_struct(PriceToken)6_storage",
        "encoding": "dynamic_array",
        "label": "struct CustomMinHeapLib.PriceToken[]",
        "numberOfBytes": "32"
      },
      "t_array(t_struct(Sale)3480_storage)dyn_storage": {
        "base": "t_struct(Sale)3480_storage",
        "encoding": "dynamic_array",
        "label": "struct OrderStatisticsTree.Sale[]",
        "numberOfBytes": "32"
      },
      "t_bool": {
        "encoding": "inplace",
        "label": "bool",
        "numberOfBytes": "1"
      },
      "t_bytes4": {
        "encoding": "inplace",
        "label": "bytes4",
        "numberOfBytes": "4"
      },
      "t_enum(Color)3449": {
        "encoding": "inplace",
        "label": "enum OrderStatisticsTree.Color",
        "numberOfBytes": "1"
      },
      "t_enum(ComparatorType)3455": {
        "encoding": "inplace",
        "label": "enum OrderStatisticsTree.ComparatorType",
        "numberOfBytes": "1"
      },
      "t_mapping(t_address,t_bool)": {
        "encoding": "mapping",
        "key": "t_address",
        "label": "mapping(address => bool)",
        "numberOfBytes": "32",
        "value": "t_bool"
      },
      "t_mapping(t_address,t_mapping(t_address,t_bool))": {
        "encoding": "mapping",
        "key": "t_address",
        "label": "mapping(address => mapping(address => bool))",
        "numberOfBytes": "32",
        "value": "t_mapping(t_address,t_bool)"
      },
      "t_mapping(t_address,t_struct(Counter)7872_storage)": {
        "encoding": "mapping",
        "key": "t_address",
        "label": "mapping(address => struct Counters.Counter)",
        "numberOfBytes": "32",
        "value": "t_struct(Counter)7872_storage"
      },
      "t_mapping(t_address,t_struct(Offer)3467_storage)": {
        "encoding": "mapping",
        "key": "t_address",
        "label": "mapping(address => struct OrderStatisticsTree.Offer)",
        "numberOfBytes": "32",
        "value": "t_struct(Offer)3467_storage"
      },
      "t_mapping(t_address,t_struct(Tree)3518_storage)": {
        "encoding": "mapping",
        "key": "t_address",
        "label": "mapping(address => struct OrderStatisticsTree.Tree)",
        "numberOfBytes": "32",
        "value": "t_struct(Tree)3518_storage"
      },
      "t_mapping(t_bytes4,t_bool)": {
        "encoding": "mapping",
        "key": "t_bytes4",
        "label": "mapping(bytes4 => bool)",
        "numberOfBytes": "32",
        "value": "t_bool"
      },
      "t_mapping(t_uint256,t_address)": {
        "encoding": "mapping",
        "key": "t_uint256",
        "label": "mapping(uint256 => address)",
        "numberOfBytes": "32",
        "value": "t_address"
      },
      "t_mapping(t_uint256,t_array(t_struct(Sale)3480_storage)dyn_storage)": {
        "encoding": "mapping",
        "key": "t_uint256",
        "label": "mapping(uint256 => struct OrderStatisticsTree.Sale[])",
        "numberOfBytes": "32",
        "value": "t_array(t_struct(Sale)3480_storage)dyn_storage"
      },
      "t_mapping(t_uint256,t_mapping(t_address,t_struct(Offer)3467_storage))": {
        "encoding": "mapping",
        "key": "t_uint256",
        "label": "mapping(uint256 => mapping(address => struct OrderStatisticsTree.Offer))",
        "numberOfBytes": "32",
        "value": "t_mapping(t_address,t_struct(Offer)3467_storage)"
      },
      "t_mapping(t_uint256,t_string_storage)": {
        "encoding": "mapping",
        "key": "t_uint256",
        "label": "mapping(uint256 => string)",
        "numberOfBytes": "32",
        "value": "t_string_storage"
      },
      "t_mapping(t_uint256,t_struct(Node)3505_storage)": {
        "encoding": "mapping",
        "key": "t_uint256",
        "label": "mapping(uint256 => struct OrderStatisticsTree.Node)",
        "numberOfBytes": "32",
        "value": "t_struct(Node)3505_storage"
      },
      "t_mapping(t_uint256,t_struct(Tree)3518_storage)": {
        "encoding": "mapping",
        "key": "t_uint256",
        "label": "mapping(uint256 => struct OrderStatisticsTree.Tree)",
        "numberOfBytes": "32",
        "value": "t_struct(Tree)3518_storage"
      },
      "t_mapping(t_uint256,t_uint256)": {
        "encoding": "mapping",
        "key": "t_uint256",
        "label": "mapping(uint256 => uint256)",
        "numberOfBytes": "32",
        "value": "t_uint256"
      },
      "t_string_storage": {
        "encoding": "bytes",
        "label": "string",
        "numberOfBytes": "32"
      },
      "t_struct(Counter)7872_storage": {
        "encoding": "inplace",
        "label": "struct Counters.Counter",
        "members": [
          {
            "astId": 7871,
            "contract": "contracts/EthereumKiller.sol:EthereumKiller",
            "label": "_value",
            "offset": 0,
            "slot": "0",
            "type": "t_uint256"
          }
        ],
        "numberOfBytes": "32"
      },
      "t_struct(Heap)15_storage": {
        "encoding": "inplace",
        "label": "struct CustomMinHeapLib.Heap",
        "members": [
          {
            "astId": 10,
            "contract": "contracts/EthereumKiller.sol:EthereumKiller",
            "label": "data",
            "offset": 0,
            "slot": "0",
            "type": "t_array(t_struct(PriceToken)6_storage)dyn_storage"
          },
          {
            "astId": 14,
            "contract": "contracts/EthereumKiller.sol:EthereumKiller",
            "label": "tokenIdToIndex",
            "offset": 0,
            "slot": "1",
            "type": "t_mapping(t_uint256,t_uint256)"
          }
        ],
        "numberOfBytes": "64"
      },
      "t_struct(Node)3505_storage": {
        "encoding": "inplace",
        "label": "struct OrderStatisticsTree.Node",
        "members": [
          {
            "astId": 3482,
            "contract": "contracts/EthereumKiller.sol:EthereumKiller",
            "label": "tokenId",
            "offset": 0,
            "slot": "0",
            "type": "t_uint256"
          },
          {
            "astId": 3485,
            "contract": "contracts/EthereumKiller.sol:EthereumKiller",
            "label": "priceToken",
            "offset": 0,
            "slot": "1",
            "type": "t_struct(PriceToken)3460_storage"
          },
          {
            "astId": 3488,
            "contract": "contracts/EthereumKiller.sol:EthereumKiller",
            "label": "offer",
            "offset": 0,
            "slot": "3",
            "type": "t_struct(Offer)3467_storage"
          },
          {
            "astId": 3491,
            "contract": "contracts/EthereumKiller.sol:EthereumKiller",
            "label": "sale",
            "offset": 0,
            "slot": "6",
            "type": "t_struct(Sale)3480_storage"
          },
          {
            "astId": 3493,
            "contract": "contracts/EthereumKiller.sol:EthereumKiller",
            "label": "size",
            "offset": 0,
            "slot": "12",
            "type": "t_uint256"
          },
          {
            "astId": 3496,
            "contract": "contracts/EthereumKiller.sol:EthereumKiller",
            "label": "color",
            "offset": 0,
            "slot": "13",
            "type": "t_enum(Color)3449"
          },
          {
            "astId": 3498,
            "contract": "contracts/EthereumKiller.sol:EthereumKiller",
            "label": "left",
            "offset": 0,
            "slot": "14",
            "type": "t_uint256"
          },
          {
            "astId": 3500,
            "contract": "contracts/EthereumKiller.sol:EthereumKiller",
            "label": "right",
            "offset": 0,
            "slot": "15",
            "type": "t_uint256"
          },
          {
            "astId": 3502,
            "contract": "contracts/EthereumKiller.sol:EthereumKiller",
            "label": "parent",
            "offset": 0,
            "slot": "16",
            "type": "t_uint256"
          },
          {
            "astId": 3504,
            "contract": "contracts/EthereumKiller.sol:EthereumKiller",
            "label": "initialized",
            "offset": 0,
            "slot": "17",
            "type": "t_bool"
          }
        ],
        "numberOfBytes": "576"
      },
      "t_struct(Offer)3467_storage": {
        "encoding": "inplace",
        "label": "struct OrderStatisticsTree.Offer",
        "members": [
          {
            "astId": 3462,
            "contract": "contracts/EthereumKiller.sol:EthereumKiller",
            "label": "tokenId",
            "offset": 0,
            "slot": "0",
            "type": "t_uint256"
          },
          {
            "astId": 3464,
            "contract": "contracts/EthereumKiller.sol:EthereumKiller",
            "label": "bidder",
            "offset": 0,
            "slot": "1",
            "type": "t_address"
          },
          {
            "astId": 3466,
            "contract": "contracts/EthereumKiller.sol:EthereumKiller",
            "label": "price",
            "offset": 0,
            "slot": "2",
            "type": "t_uint256"
          }
        ],
        "numberOfBytes": "96"
      },
      "t_struct(PriceToken)3460_storage": {
        "encoding": "inplace",
        "label": "struct OrderStatisticsTree.PriceToken",
        "members": [
          {
            "astId": 3457,
            "contract": "contracts/EthereumKiller.sol:EthereumKiller",
            "label": "price",
            "offset": 0,
            "slot": "0",
            "type": "t_uint256"
          },
          {
            "astId": 3459,
            "contract": "contracts/EthereumKiller.sol:EthereumKiller",
            "label": "tokenId",
            "offset": 0,
            "slot": "1",
            "type": "t_uint256"
          }
        ],
        "numberOfBytes": "64"
      },
      "t_struct(PriceToken)6_storage": {
        "encoding": "inplace",
        "label": "struct CustomMinHeapLib.PriceToken",
        "members": [
          {
            "astId": 3,
            "contract": "contracts/EthereumKiller.sol:EthereumKiller",
            "label": "price",
            "offset": 0,
            "slot": "0",
            "type": "t_uint256"
          },
          {
            "astId": 5,
            "contract": "contracts/EthereumKiller.sol:EthereumKiller",
            "label": "tokenId",
            "offset": 0,
            "slot": "1",
            "type": "t_uint256"
          }
        ],
        "numberOfBytes": "64"
      },
      "t_struct(Sale)3480_storage": {
        "encoding": "inplace",
        "label": "struct OrderStatisticsTree.Sale",
        "members": [
          {
            "astId": 3469,
            "contract": "contracts/EthereumKiller.sol:EthereumKiller",
            "label": "salesId",
            "offset": 0,
            "slot": "0",
            "type": "t_uint256"
          },
          {
            "astId": 3471,
            "contract": "contracts/EthereumKiller.sol:EthereumKiller",
            "label": "tokenId",
            "offset": 0,
            "slot": "1",
            "type": "t_uint256"
          },
          {
            "astId": 3473,
            "contract": "contracts/EthereumKiller.sol:EthereumKiller",
            "label": "seller",
            "offset": 0,
            "slot": "2",
            "type": "t_address"
          },
          {
            "astId": 3475,
            "contract": "contracts/EthereumKiller.sol:EthereumKiller",
            "label": "buyer",
            "offset": 0,
            "slot": "3",
            "type": "t_address"
          },
          {
            "astId": 3477,
            "contract": "contracts/EthereumKiller.sol:EthereumKiller",
            "label": "price",
            "offset": 0,
            "slot": "4",
            "type": "t_uint256"
          },
          {
            "astId": 3479,
            "contract": "contracts/EthereumKiller.sol:EthereumKiller",
            "label": "timestamp",
            "offset": 0,
            "slot": "5",
            "type": "t_uint256"
          }
        ],
        "numberOfBytes": "192"
      },
      "t_struct(Tree)3518_storage": {
        "encoding": "inplace",
        "label": "struct OrderStatisticsTree.Tree",
        "members": [
          {
            "astId": 3510,
            "contract": "contracts/EthereumKiller.sol:EthereumKiller",
            "label": "nodes",
            "offset": 0,
            "slot": "0",
            "type": "t_mapping(t_uint256,t_struct(Node)3505_storage)"
          },
          {
            "astId": 3512,
            "contract": "contracts/EthereumKiller.sol:EthereumKiller",
            "label": "root",
            "offset": 0,
            "slot": "1",
            "type": "t_uint256"
          },
          {
            "astId": 3514,
            "contract": "contracts/EthereumKiller.sol:EthereumKiller",
            "label": "initialized",
            "offset": 0,
            "slot": "2",
            "type": "t_bool"
          },
          {
            "astId": 3517,
            "contract": "contracts/EthereumKiller.sol:EthereumKiller",
            "label": "comparatorType",
            "offset": 1,
            "slot": "2",
            "type": "t_enum(ComparatorType)3455"
          }
        ],
        "numberOfBytes": "96"
      },
      "t_uint256": {
        "encoding": "inplace",
        "label": "uint256",
        "numberOfBytes": "32"
      }
    }
  }
}